{
  "contractName": "ScoreVoting",
  "abi": [
    {
      "inputs": [
        {
          "internalType": "address",
          "name": "_cryptoAddress",
          "type": "address"
        }
      ],
      "stateMutability": "nonpayable",
      "type": "constructor"
    },
    {
      "anonymous": false,
      "inputs": [
        {
          "indexed": false,
          "internalType": "address",
          "name": "voter",
          "type": "address"
        },
        {
          "indexed": false,
          "internalType": "uint256",
          "name": "candidateId",
          "type": "uint256"
        },
        {
          "indexed": false,
          "internalType": "bool",
          "name": "vote",
          "type": "bool"
        }
      ],
      "name": "VoteSubmitted",
      "type": "event"
    },
    {
      "anonymous": false,
      "inputs": [],
      "name": "VotersRegistrationStarted",
      "type": "event"
    },
    {
      "anonymous": false,
      "inputs": [],
      "name": "VotingEnded",
      "type": "event"
    },
    {
      "anonymous": false,
      "inputs": [],
      "name": "VotingStarted",
      "type": "event"
    },
    {
      "inputs": [],
      "name": "admin",
      "outputs": [
        {
          "internalType": "address",
          "name": "",
          "type": "address"
        }
      ],
      "stateMutability": "view",
      "type": "function",
      "constant": true
    },
    {
      "inputs": [
        {
          "internalType": "address",
          "name": "",
          "type": "address"
        },
        {
          "internalType": "uint256",
          "name": "",
          "type": "uint256"
        }
      ],
      "name": "ballotsBeta",
      "outputs": [
        {
          "internalType": "uint256",
          "name": "",
          "type": "uint256"
        }
      ],
      "stateMutability": "view",
      "type": "function",
      "constant": true
    },
    {
      "inputs": [
        {
          "internalType": "address",
          "name": "",
          "type": "address"
        },
        {
          "internalType": "uint256",
          "name": "",
          "type": "uint256"
        }
      ],
      "name": "ballotsGamma",
      "outputs": [
        {
          "internalType": "uint256",
          "name": "",
          "type": "uint256"
        }
      ],
      "stateMutability": "view",
      "type": "function",
      "constant": true
    },
    {
      "inputs": [
        {
          "internalType": "address",
          "name": "",
          "type": "address"
        }
      ],
      "name": "ballotsProofs",
      "outputs": [
        {
          "internalType": "uint256",
          "name": "p4",
          "type": "uint256"
        }
      ],
      "stateMutability": "view",
      "type": "function",
      "constant": true
    },
    {
      "inputs": [],
      "name": "candidateCount",
      "outputs": [
        {
          "internalType": "uint256",
          "name": "",
          "type": "uint256"
        }
      ],
      "stateMutability": "view",
      "type": "function",
      "constant": true
    },
    {
      "inputs": [
        {
          "internalType": "uint256",
          "name": "",
          "type": "uint256"
        }
      ],
      "name": "candidates",
      "outputs": [
        {
          "internalType": "uint256",
          "name": "id",
          "type": "uint256"
        },
        {
          "internalType": "string",
          "name": "name",
          "type": "string"
        }
      ],
      "stateMutability": "view",
      "type": "function",
      "constant": true
    },
    {
      "inputs": [
        {
          "internalType": "address",
          "name": "",
          "type": "address"
        },
        {
          "internalType": "uint256",
          "name": "",
          "type": "uint256"
        }
      ],
      "name": "commitmentsNu",
      "outputs": [
        {
          "internalType": "uint256",
          "name": "",
          "type": "uint256"
        }
      ],
      "stateMutability": "view",
      "type": "function",
      "constant": true
    },
    {
      "inputs": [
        {
          "internalType": "address",
          "name": "",
          "type": "address"
        },
        {
          "internalType": "uint256",
          "name": "",
          "type": "uint256"
        },
        {
          "internalType": "uint256",
          "name": "",
          "type": "uint256"
        }
      ],
      "name": "commitmentsProofs1",
      "outputs": [
        {
          "internalType": "uint256",
          "name": "",
          "type": "uint256"
        }
      ],
      "stateMutability": "view",
      "type": "function",
      "constant": true
    },
    {
      "inputs": [
        {
          "internalType": "address",
          "name": "",
          "type": "address"
        },
        {
          "internalType": "uint256",
          "name": "",
          "type": "uint256"
        }
      ],
      "name": "commitmentsProofs2",
      "outputs": [
        {
          "internalType": "uint256",
          "name": "",
          "type": "uint256"
        }
      ],
      "stateMutability": "view",
      "type": "function",
      "constant": true
    },
    {
      "inputs": [
        {
          "internalType": "address",
          "name": "",
          "type": "address"
        },
        {
          "internalType": "uint256",
          "name": "",
          "type": "uint256"
        }
      ],
      "name": "commitmentsXi",
      "outputs": [
        {
          "internalType": "uint256",
          "name": "",
          "type": "uint256"
        }
      ],
      "stateMutability": "view",
      "type": "function",
      "constant": true
    },
    {
      "inputs": [
        {
          "internalType": "uint256",
          "name": "",
          "type": "uint256"
        }
      ],
      "name": "eachCandidateKeys",
      "outputs": [
        {
          "internalType": "uint256",
          "name": "",
          "type": "uint256"
        }
      ],
      "stateMutability": "view",
      "type": "function",
      "constant": true
    },
    {
      "inputs": [
        {
          "internalType": "address",
          "name": "",
          "type": "address"
        },
        {
          "internalType": "uint256",
          "name": "",
          "type": "uint256"
        }
      ],
      "name": "publicKeys",
      "outputs": [
        {
          "internalType": "uint256",
          "name": "",
          "type": "uint256"
        }
      ],
      "stateMutability": "view",
      "type": "function",
      "constant": true
    },
    {
      "inputs": [
        {
          "internalType": "address",
          "name": "",
          "type": "address"
        },
        {
          "internalType": "uint256",
          "name": "",
          "type": "uint256"
        }
      ],
      "name": "publicKeysForCandidates",
      "outputs": [
        {
          "internalType": "uint256",
          "name": "",
          "type": "uint256"
        }
      ],
      "stateMutability": "view",
      "type": "function",
      "constant": true
    },
    {
      "inputs": [],
      "name": "totalScore",
      "outputs": [
        {
          "internalType": "uint256",
          "name": "",
          "type": "uint256"
        }
      ],
      "stateMutability": "view",
      "type": "function",
      "constant": true
    },
    {
      "inputs": [
        {
          "internalType": "uint256",
          "name": "",
          "type": "uint256"
        }
      ],
      "name": "voters",
      "outputs": [
        {
          "internalType": "address",
          "name": "",
          "type": "address"
        }
      ],
      "stateMutability": "view",
      "type": "function",
      "constant": true
    },
    {
      "inputs": [],
      "name": "votingState",
      "outputs": [
        {
          "internalType": "uint256",
          "name": "",
          "type": "uint256"
        }
      ],
      "stateMutability": "view",
      "type": "function",
      "constant": true
    },
    {
      "inputs": [],
      "name": "getVotingStatus",
      "outputs": [
        {
          "internalType": "uint256",
          "name": "",
          "type": "uint256"
        }
      ],
      "stateMutability": "view",
      "type": "function",
      "constant": true
    },
    {
      "inputs": [
        {
          "internalType": "string",
          "name": "_name",
          "type": "string"
        }
      ],
      "name": "addCandidate",
      "outputs": [],
      "stateMutability": "nonpayable",
      "type": "function"
    },
    {
      "inputs": [],
      "name": "getCandidates",
      "outputs": [
        {
          "components": [
            {
              "internalType": "uint256",
              "name": "id",
              "type": "uint256"
            },
            {
              "internalType": "string",
              "name": "name",
              "type": "string"
            }
          ],
          "internalType": "struct ScoreVoting.Candidate[]",
          "name": "",
          "type": "tuple[]"
        }
      ],
      "stateMutability": "view",
      "type": "function",
      "constant": true
    },
    {
      "inputs": [],
      "name": "startVotersRegistration",
      "outputs": [],
      "stateMutability": "nonpayable",
      "type": "function"
    },
    {
      "inputs": [],
      "name": "startVoting",
      "outputs": [],
      "stateMutability": "nonpayable",
      "type": "function"
    },
    {
      "inputs": [],
      "name": "endVoting",
      "outputs": [],
      "stateMutability": "nonpayable",
      "type": "function"
    },
    {
      "inputs": [],
      "name": "getVoterPublicKeys",
      "outputs": [
        {
          "internalType": "uint256[2][]",
          "name": "allPubKeys",
          "type": "uint256[2][]"
        }
      ],
      "stateMutability": "view",
      "type": "function",
      "constant": true
    },
    {
      "inputs": [
        {
          "internalType": "uint256[2]",
          "name": "_pubKey",
          "type": "uint256[2]"
        },
        {
          "internalType": "uint256[]",
          "name": "_pubKeyForCandidates",
          "type": "uint256[]"
        }
      ],
      "name": "registerVoter",
      "outputs": [],
      "stateMutability": "nonpayable",
      "type": "function"
    },
    {
      "inputs": [],
      "name": "getVoters",
      "outputs": [
        {
          "internalType": "address[]",
          "name": "",
          "type": "address[]"
        }
      ],
      "stateMutability": "view",
      "type": "function",
      "constant": true
    },
    {
      "inputs": [
        {
          "internalType": "uint256[]",
          "name": "commitmentXi",
          "type": "uint256[]"
        },
        {
          "internalType": "uint256[]",
          "name": "commitmentNu",
          "type": "uint256[]"
        },
        {
          "internalType": "uint256[][]",
          "name": "proof1",
          "type": "uint256[][]"
        },
        {
          "internalType": "uint256[]",
          "name": "proof2",
          "type": "uint256[]"
        },
        {
          "internalType": "uint256[2]",
          "name": "W_i",
          "type": "uint256[2]"
        }
      ],
      "name": "commitVote",
      "outputs": [],
      "stateMutability": "nonpayable",
      "type": "function"
    },
    {
      "inputs": [
        {
          "internalType": "uint256[]",
          "name": "xis",
          "type": "uint256[]"
        },
        {
          "internalType": "uint256[]",
          "name": "nus",
          "type": "uint256[]"
        },
        {
          "internalType": "uint256[][]",
          "name": "proof",
          "type": "uint256[][]"
        },
        {
          "internalType": "uint256[2]",
          "name": "W_i",
          "type": "uint256[2]"
        }
      ],
      "name": "checkZKPoK1",
      "outputs": [
        {
          "internalType": "bool",
          "name": "",
          "type": "bool"
        }
      ],
      "stateMutability": "view",
      "type": "function",
      "constant": true
    },
    {
      "inputs": [
        {
          "internalType": "uint256[]",
          "name": "ballotBeta",
          "type": "uint256[]"
        },
        {
          "internalType": "uint256[]",
          "name": "ballotGamma",
          "type": "uint256[]"
        },
        {
          "components": [
            {
              "internalType": "uint256[]",
              "name": "p3",
              "type": "uint256[]"
            },
            {
              "internalType": "uint256",
              "name": "p4",
              "type": "uint256"
            }
          ],
          "internalType": "struct ScoreVoting.BallotProof",
          "name": "proof",
          "type": "tuple"
        }
      ],
      "name": "vote",
      "outputs": [],
      "stateMutability": "nonpayable",
      "type": "function"
    },
    {
      "inputs": [],
      "name": "selfTallying",
      "outputs": [],
      "stateMutability": "nonpayable",
      "type": "function"
    }
  ],
  "bytecode": "0x60806040523480156200001157600080fd5b5060405162003e5e38038062003e5e833981810160405281019062000037919062000149565b336000806101000a81548173ffffffffffffffffffffffffffffffffffffffff021916908373ffffffffffffffffffffffffffffffffffffffff1602179055506000601281905550600a6010819055506000600281905550600560038190555080600160006101000a81548173ffffffffffffffffffffffffffffffffffffffff021916908373ffffffffffffffffffffffffffffffffffffffff160217905550506200017b565b600080fd5b600073ffffffffffffffffffffffffffffffffffffffff82169050919050565b60006200011182620000e4565b9050919050565b620001238162000104565b81146200012f57600080fd5b50565b600081519050620001438162000118565b92915050565b600060208284031215620001625762000161620000df565b5b6000620001728482850162000132565b91505092915050565b613cd3806200018b6000396000f3fe608060405234801561001057600080fd5b50600436106101cf5760003560e01c80638e81033711610104578063d5a53f7d116100a2578063e335773c11610071578063e335773c14610547578063e33eb3de14610563578063f851a4401461057f578063f8de1bcd1461059d576101cf565b8063d5a53f7d14610499578063d98b8552146104b7578063da58c7d9146104e7578063dd11658b14610517576101cf565b8063b62312bf116100de578063b62312bf14610435578063c006719f14610453578063c3403ddf14610471578063cdd722531461047b576101cf565b80638e810337146103dd57806398e090fe1461040d578063a9a981a314610417576101cf565b80633477ee2e116101715780636df978721161014b5780636df9787214610343578063716a388b14610373578063732b63d41461037d57806386c69133146103ad576101cf565b80633477ee2e146102d8578063462e91ec14610309578063581c281c14610325576101cf565b8063258cacfe116101ad578063258cacfe1461022c57806328851e191461025c57806328cbe0dc146102785780632eaf1400146102a8576101cf565b806306a49fce146101d457806310782555146101f25780631ec6b60a14610222575b600080fd5b6101dc6105cd565b6040516101e991906127da565b60405180910390f35b61020c6004803603810190610207919061289a565b610738565b60405161021991906128e9565b60405180910390f35b61022a610760565b005b6102466004803603810190610241919061289a565b610869565b60405161025391906128e9565b60405180910390f35b61027660048036038101906102719190612afd565b61089a565b005b610292600480360381019061028d9190612b59565b6109bf565b60405161029f91906128e9565b60405180910390f35b6102c260048036038101906102bd9190612b86565b6109d7565b6040516102cf91906128e9565b60405180910390f35b6102f260048036038101906102ed9190612b59565b610a21565b604051610300929190612c23565b60405180910390f35b610323600480360381019061031e9190612d08565b610acd565b005b61032d610c11565b60405161033a91906128e9565b60405180910390f35b61035d60048036038101906103589190612e32565b610c1b565b60405161036a9190612f08565b60405180910390f35b61037b61127a565b005b6103976004803603810190610392919061289a565b611362565b6040516103a491906128e9565b60405180910390f35b6103c760048036038101906103c2919061289a565b611393565b6040516103d491906128e9565b60405180910390f35b6103f760048036038101906103f2919061289a565b6113c4565b60405161040491906128e9565b60405180910390f35b6104156113f5565b005b61041f6114fe565b60405161042c91906128e9565b60405180910390f35b61043d611504565b60405161044a91906128e9565b60405180910390f35b61045b61150a565b60405161046891906128e9565b60405180910390f35b610479611510565b005b610483611619565b6040516104909190612fe1565b60405180910390f35b6104a16116a7565b6040516104ae919061314e565b60405180910390f35b6104d160048036038101906104cc919061289a565b611809565b6040516104de91906128e9565b60405180910390f35b61050160048036038101906104fc9190612b59565b61183a565b60405161050e919061317f565b60405180910390f35b610531600480360381019061052c919061289a565b611879565b60405161053e91906128e9565b60405180910390f35b610561600480360381019061055c919061319a565b6118aa565b005b61057d600480360381019061057891906132fb565b6119e3565b005b610587611b2b565b604051610594919061317f565b60405180910390f35b6105b760048036038101906105b291906133a2565b611b4f565b6040516105c491906128e9565b60405180910390f35b6060600060115467ffffffffffffffff8111156105ed576105ec612909565b5b60405190808252806020026020018201604052801561062657816020015b61061361245c565b81526020019060019003908161060b5790505b5090506000600190505b6011548111610730576006600082815260200190815260200160002060405180604001604052908160008201548152602001600182018054610671906133fe565b80601f016020809104026020016040519081016040528092919081815260200182805461069d906133fe565b80156106ea5780601f106106bf576101008083540402835291602001916106ea565b820191906000526020600020905b8154815290600101906020018083116106cd57829003601f168201915b50505050508152505082600183610701919061345e565b8151811061071257610711613492565b5b60200260200101819052508080610728906134c1565b915050610630565b508091505090565b6004602052816000526040600020816002811061075457600080fd5b01600091509150505481565b60008054906101000a900473ffffffffffffffffffffffffffffffffffffffff1673ffffffffffffffffffffffffffffffffffffffff163373ffffffffffffffffffffffffffffffffffffffff16146107ee576040517f08c379a00000000000000000000000000000000000000000000000000000000081526004016107e59061357b565b60405180910390fd5b600160125414610833576040517f08c379a000000000000000000000000000000000000000000000000000000000815260040161082a906135e7565b60405180910390fd5b60036012819055507f877e2548498f42b7975a186b94ef1d32c86d420b7b806dd2be2bea293b89590460405160405180910390a1565b600c602052816000526040600020818154811061088557600080fd5b90600052602060002001600091509150505481565b60115460026108a99190613607565b8151146108b557600080fd5b600f339080600181540180825580915050600190039060005260206000200160009091909190916101000a81548173ffffffffffffffffffffffffffffffffffffffff021916908373ffffffffffffffffffffffffffffffffffffffff16021790555081600460003373ffffffffffffffffffffffffffffffffffffffff1673ffffffffffffffffffffffffffffffffffffffff168152602001908152602001600020906002610966929190612476565b5080600560003373ffffffffffffffffffffffffffffffffffffffff1673ffffffffffffffffffffffffffffffffffffffff16815260200190815260200160002090805190602001906109ba9291906124b6565b505050565b60076020528060005260406000206000915090505481565b600a60205282600052604060002082815481106109f357600080fd5b906000526020600020018181548110610a0b57600080fd5b9060005260206000200160009250925050505481565b6006602052806000526040600020600091509050806000015490806001018054610a4a906133fe565b80601f0160208091040260200160405190810160405280929190818152602001828054610a76906133fe565b8015610ac35780601f10610a9857610100808354040283529160200191610ac3565b820191906000526020600020905b815481529060010190602001808311610aa657829003601f168201915b5050505050905082565b60008054906101000a900473ffffffffffffffffffffffffffffffffffffffff1673ffffffffffffffffffffffffffffffffffffffff163373ffffffffffffffffffffffffffffffffffffffff1614610b5b576040517f08c379a0000000000000000000000000000000000000000000000000000000008152600401610b529061357b565b60405180910390fd5b600060125414610ba0576040517f08c379a0000000000000000000000000000000000000000000000000000000008152600401610b97906136d3565b60405180910390fd5b60116000815480929190610bb3906134c1565b91905055506040518060400160405280601154815260200182815250600660006011548152602001908152602001600020600082015181600001556020820151816001019080519060200190610c0a929190612503565b5090505050565b6000601254905090565b6000610c25612589565b60006001905060005b60115481101561126c57600060405180604001604052808a600285610c539190613607565b81518110610c6457610c63613492565b5b602002602001015181526020018a6001600286610c819190613607565b610c8b91906136f3565b81518110610c9c57610c9b613492565b5b60200260200101518152508460000181905250604051806040016040528089600285610cc89190613607565b81518110610cd957610cd8613492565b5b60200260200101518152602001896001600286610cf69190613607565b610d0091906136f3565b81518110610d1157610d10613492565b5b60200260200101518152508460200181905250868281518110610d3757610d36613492565b5b6020026020010151600081518110610d5257610d51613492565b5b6020026020010151846040018181525050868281518110610d7657610d75613492565b5b6020026020010151600181518110610d9157610d90613492565b5b60200260200101518460800181815250506040518060400160405280888481518110610dc057610dbf613492565b5b6020026020010151600281518110610ddb57610dda613492565b5b60200260200101518152602001888481518110610dfb57610dfa613492565b5b6020026020010151600381518110610e1657610e15613492565b5b60200260200101518152508460600181905250600060025490505b6003548111610f8057600160009054906101000a900473ffffffffffffffffffffffffffffffffffffffff1673ffffffffffffffffffffffffffffffffffffffff16637afbe4f1838a8681518110610e8c57610e8b613492565b5b6020026020010151600660025486610ea4919061345e565b610eae9190613607565b6008610eba91906136f3565b81518110610ecb57610eca613492565b5b60200260200101516040518363ffffffff1660e01b8152600401610ef0929190613749565b602060405180830381865afa158015610f0d573d6000803e3d6000fd5b505050506040513d601f19601f82011682018060405250810190610f319190613787565b9150838015610f6b5750610f6a856000015186602001518a8681518110610f5b57610f5a613492565b5b6020026020010151848b611b6d565b5b93508080610f78906134c1565b915050610e31565b50828015610f915750808460400151145b92508280156112565750600160009054906101000a900473ffffffffffffffffffffffffffffffffffffffff1673ffffffffffffffffffffffffffffffffffffffff1663440c68b88560600151600160009054906101000a900473ffffffffffffffffffffffffffffffffffffffff1673ffffffffffffffffffffffffffffffffffffffff1663a867d0ca600160009054906101000a900473ffffffffffffffffffffffffffffffffffffffff1673ffffffffffffffffffffffffffffffffffffffff1663175d2bd58a60400151600460003373ffffffffffffffffffffffffffffffffffffffff1673ffffffffffffffffffffffffffffffffffffffff1681526020019081526020016000206040518363ffffffff1660e01b81526004016110bb929190613883565b6040805180830381865afa1580156110d7573d6000803e3d6000fd5b505050506040513d601f19601f820116820180604052508101906110fb9190613937565b600160009054906101000a900473ffffffffffffffffffffffffffffffffffffffff1673ffffffffffffffffffffffffffffffffffffffff1663bf196cda8b608001516040518263ffffffff1660e01b815260040161115a91906128e9565b6040805180830381865afa158015611176573d6000803e3d6000fd5b505050506040513d601f19601f8201168201806040525081019061119a9190613937565b6040518363ffffffff1660e01b81526004016111b79291906139bb565b6040805180830381865afa1580156111d3573d6000803e3d6000fd5b505050506040513d601f19601f820116820180604052508101906111f79190613937565b6040518363ffffffff1660e01b81526004016112149291906139bb565b602060405180830381865afa158015611231573d6000803e3d6000fd5b505050506040513d601f19601f820116820180604052508101906112559190613a10565b5b9250508080611264906134c1565b915050610c2e565b508092505050949350505050565b60008054906101000a900473ffffffffffffffffffffffffffffffffffffffff1673ffffffffffffffffffffffffffffffffffffffff163373ffffffffffffffffffffffffffffffffffffffff1614611308576040517f08c379a00000000000000000000000000000000000000000000000000000000081526004016112ff9061357b565b60405180910390fd5b60008054906101000a900473ffffffffffffffffffffffffffffffffffffffff1673ffffffffffffffffffffffffffffffffffffffff163373ffffffffffffffffffffffffffffffffffffffff161461136057600080fd5b565b6005602052816000526040600020818154811061137e57600080fd5b90600052602060002001600091509150505481565b600b60205281600052604060002081815481106113af57600080fd5b90600052602060002001600091509150505481565b600d60205281600052604060002081815481106113e057600080fd5b90600052602060002001600091509150505481565b60008054906101000a900473ffffffffffffffffffffffffffffffffffffffff1673ffffffffffffffffffffffffffffffffffffffff163373ffffffffffffffffffffffffffffffffffffffff1614611483576040517f08c379a000000000000000000000000000000000000000000000000000000000815260040161147a9061357b565b60405180910390fd5b6000601254146114c8576040517f08c379a00000000000000000000000000000000000000000000000000000000081526004016114bf906136d3565b60405180910390fd5b60016012819055507f04c14f507b823206de91bd964bbb0a515886a12d00f420ab00a9668769ffc8a660405160405180910390a1565b60115481565b60125481565b60105481565b60008054906101000a900473ffffffffffffffffffffffffffffffffffffffff1673ffffffffffffffffffffffffffffffffffffffff163373ffffffffffffffffffffffffffffffffffffffff161461159e576040517f08c379a00000000000000000000000000000000000000000000000000000000081526004016115959061357b565b60405180910390fd5b6003601254146115e3576040517f08c379a00000000000000000000000000000000000000000000000000000000081526004016115da90613a89565b60405180910390fd5b60046012819055507f7a19ed057db79e3c2fa0b97a54b43bef4fce74b31bb6c01af514b9a18a7f70ab60405160405180910390a1565b6060600f80548060200260200160405190810160405280929190818152602001828054801561169d57602002820191906000526020600020905b8160009054906101000a900473ffffffffffffffffffffffffffffffffffffffff1673ffffffffffffffffffffffffffffffffffffffff1681526020019060010190808311611653575b5050505050905090565b60606000600f8054905090508067ffffffffffffffff8111156116cd576116cc612909565b5b60405190808252806020026020018201604052801561170657816020015b6116f36125d1565b8152602001906001900390816116eb5790505b50915060005b81811015611804576000600f828154811061172a57611729613492565b5b9060005260206000200160009054906101000a900473ffffffffffffffffffffffffffffffffffffffff169050600460008273ffffffffffffffffffffffffffffffffffffffff1673ffffffffffffffffffffffffffffffffffffffff1681526020019081526020016000206002806020026040519081016040528092919082600280156117cd576020028201915b8154815260200190600101908083116117b9575b50505050508483815181106117e5576117e4613492565b5b60200260200101819052505080806117fc906134c1565b91505061170c565b505090565b6009602052816000526040600020818154811061182557600080fd5b90600052602060002001600091509150505481565b600f818154811061184a57600080fd5b906000526020600020016000915054906101000a900473ffffffffffffffffffffffffffffffffffffffff1681565b6008602052816000526040600020818154811061189557600080fd5b90600052602060002001600091509150505481565b60026011546118b99190613607565b8551146118fb576040517f08c379a00000000000000000000000000000000000000000000000000000000081526004016118f290613af5565b60405180910390fd5b600260115461190a9190613607565b84511461194c576040517f08c379a000000000000000000000000000000000000000000000000000000000815260040161194390613b61565b60405180910390fd5b601154835114611991576040517f08c379a000000000000000000000000000000000000000000000000000000000815260040161198890613bcd565b60405180910390fd5b61199d85858584610c1b565b6119dc576040517f08c379a00000000000000000000000000000000000000000000000000000000081526004016119d390613c39565b60405180910390fd5b5050505050565b6011548351146119f257600080fd5b601154825114611a0157600080fd5b60115481600001515114611a1457600080fd5b82600c60003373ffffffffffffffffffffffffffffffffffffffff1673ffffffffffffffffffffffffffffffffffffffff1681526020019081526020016000209080519060200190611a679291906124b6565b5081600d60003373ffffffffffffffffffffffffffffffffffffffff1673ffffffffffffffffffffffffffffffffffffffff1681526020019081526020016000209080519060200190611abb9291906124b6565b5080600e60003373ffffffffffffffffffffffffffffffffffffffff1673ffffffffffffffffffffffffffffffffffffffff1681526020019081526020016000206000820151816000019080519060200190611b189291906124b6565b5060208201518160010155905050505050565b60008054906101000a900473ffffffffffffffffffffffffffffffffffffffff1681565b600e6020528060005260406000206000915090508060010154905081565b60008060019050611b7c6125f3565b604051806040016040528087600660025489611b98919061345e565b611ba29190613607565b6004611bae91906136f3565b81518110611bbf57611bbe613492565b5b6020026020010151815260200187600660025489611bdd919061345e565b611be79190613607565b6005611bf391906136f3565b81518110611c0457611c03613492565b5b60200260200101518152508160000181905250611c1f6125f3565b60405180604001604052808860066002548a611c3b919061345e565b611c459190613607565b6006611c5191906136f3565b81518110611c6257611c61613492565b5b602002602001015181526020018860066002548a611c80919061345e565b611c8a9190613607565b6007611c9691906136f3565b81518110611ca757611ca6613492565b5b60200260200101518152508160000181905250600087600660025489611ccd919061345e565b611cd79190613607565b6008611ce391906136f3565b81518110611cf457611cf3613492565b5b6020026020010151905060008860066002548a611d11919061345e565b611d1b9190613607565b6009611d2791906136f3565b81518110611d3857611d37613492565b5b60200260200101519050848015611d5b5750611d5a8b85600001518484611d8b565b5b9450848015611d785750611d778a88856000015185858d612007565b5b9450849550505050505095945050505050565b6000600160009054906101000a900473ffffffffffffffffffffffffffffffffffffffff1673ffffffffffffffffffffffffffffffffffffffff1663440c68b8600160009054906101000a900473ffffffffffffffffffffffffffffffffffffffff1673ffffffffffffffffffffffffffffffffffffffff1663a867d0ca600160009054906101000a900473ffffffffffffffffffffffffffffffffffffffff1673ffffffffffffffffffffffffffffffffffffffff1663bf196cda876040518263ffffffff1660e01b8152600401611e6491906128e9565b6040805180830381865afa158015611e80573d6000803e3d6000fd5b505050506040513d601f19601f82011682018060405250810190611ea49190613937565b600160009054906101000a900473ffffffffffffffffffffffffffffffffffffffff1673ffffffffffffffffffffffffffffffffffffffff1663175d2bd5898c6040518363ffffffff1660e01b8152600401611f01929190613c59565b6040805180830381865afa158015611f1d573d6000803e3d6000fd5b505050506040513d601f19601f82011682018060405250810190611f419190613937565b6040518363ffffffff1660e01b8152600401611f5e9291906139bb565b6040805180830381865afa158015611f7a573d6000803e3d6000fd5b505050506040513d601f19601f82011682018060405250810190611f9e9190613937565b866040518363ffffffff1660e01b8152600401611fbc9291906139bb565b602060405180830381865afa158015611fd9573d6000803e3d6000fd5b505050506040513d601f19601f82011682018060405250810190611ffd9190613a10565b9050949350505050565b600080600160009054906101000a900473ffffffffffffffffffffffffffffffffffffffff1673ffffffffffffffffffffffffffffffffffffffff1663a867d0ca89600160009054906101000a900473ffffffffffffffffffffffffffffffffffffffff1673ffffffffffffffffffffffffffffffffffffffff16639d30676f600160009054906101000a900473ffffffffffffffffffffffffffffffffffffffff1673ffffffffffffffffffffffffffffffffffffffff1663bf196cda896040518263ffffffff1660e01b81526004016120e291906128e9565b6040805180830381865afa1580156120fe573d6000803e3d6000fd5b505050506040513d601f19601f820116820180604052508101906121229190613937565b6040518263ffffffff1660e01b815260040161213e9190613c82565b6040805180830381865afa15801561215a573d6000803e3d6000fd5b505050506040513d601f19601f8201168201806040525081019061217e9190613937565b6040518363ffffffff1660e01b815260040161219b9291906139bb565b6040805180830381865afa1580156121b7573d6000803e3d6000fd5b505050506040513d601f19601f820116820180604052508101906121db9190613937565b9050600160009054906101000a900473ffffffffffffffffffffffffffffffffffffffff1673ffffffffffffffffffffffffffffffffffffffff1663440c68b8600160009054906101000a900473ffffffffffffffffffffffffffffffffffffffff1673ffffffffffffffffffffffffffffffffffffffff1663a867d0ca600160009054906101000a900473ffffffffffffffffffffffffffffffffffffffff1673ffffffffffffffffffffffffffffffffffffffff1663175d2bd5898d6040518363ffffffff1660e01b81526004016122b6929190613c59565b6040805180830381865afa1580156122d2573d6000803e3d6000fd5b505050506040513d601f19601f820116820180604052508101906122f69190613937565b600160009054906101000a900473ffffffffffffffffffffffffffffffffffffffff1673ffffffffffffffffffffffffffffffffffffffff1663175d2bd58b886040518363ffffffff1660e01b8152600401612353929190613c59565b6040805180830381865afa15801561236f573d6000803e3d6000fd5b505050506040513d601f19601f820116820180604052508101906123939190613937565b6040518363ffffffff1660e01b81526004016123b09291906139bb565b6040805180830381865afa1580156123cc573d6000803e3d6000fd5b505050506040513d601f19601f820116820180604052508101906123f09190613937565b886040518363ffffffff1660e01b815260040161240e9291906139bb565b602060405180830381865afa15801561242b573d6000803e3d6000fd5b505050506040513d601f19601f8201168201806040525081019061244f9190613a10565b9150509695505050505050565b604051806040016040528060008152602001606081525090565b82600281019282156124a5579160200282015b828111156124a4578251825591602001919060010190612489565b5b5090506124b2919061260c565b5090565b8280548282559060005260206000209081019282156124f2579160200282015b828111156124f15782518255916020019190600101906124d6565b5b5090506124ff919061260c565b5090565b82805461250f906133fe565b90600052602060002090601f0160209004810192826125315760008555612578565b82601f1061254a57805160ff1916838001178555612578565b82800160010185558215612578579182015b8281111561257757825182559160200191906001019061255c565b5b509050612585919061260c565b5090565b6040518060c0016040528061259c6125d1565b81526020016125a96125d1565b8152602001600081526020016125bd6125d1565b815260200160008152602001606081525090565b6040518060400160405280600290602082028036833780820191505090505090565b60405180602001604052806126066125d1565b81525090565b5b8082111561262557600081600090555060010161260d565b5090565b600081519050919050565b600082825260208201905092915050565b6000819050602082019050919050565b6000819050919050565b61266881612655565b82525050565b600081519050919050565b600082825260208201905092915050565b60005b838110156126a857808201518184015260208101905061268d565b838111156126b7576000848401525b50505050565b6000601f19601f8301169050919050565b60006126d98261266e565b6126e38185612679565b93506126f381856020860161268a565b6126fc816126bd565b840191505092915050565b600060408301600083015161271f600086018261265f565b506020830151848203602086015261273782826126ce565b9150508091505092915050565b60006127508383612707565b905092915050565b6000602082019050919050565b600061277082612629565b61277a8185612634565b93508360208202850161278c85612645565b8060005b858110156127c857848403895281516127a98582612744565b94506127b483612758565b925060208a01995050600181019050612790565b50829750879550505050505092915050565b600060208201905081810360008301526127f48184612765565b905092915050565b6000604051905090565b600080fd5b600080fd5b600073ffffffffffffffffffffffffffffffffffffffff82169050919050565b600061283b82612810565b9050919050565b61284b81612830565b811461285657600080fd5b50565b60008135905061286881612842565b92915050565b61287781612655565b811461288257600080fd5b50565b6000813590506128948161286e565b92915050565b600080604083850312156128b1576128b0612806565b5b60006128bf85828601612859565b92505060206128d085828601612885565b9150509250929050565b6128e381612655565b82525050565b60006020820190506128fe60008301846128da565b92915050565b600080fd5b7f4e487b7100000000000000000000000000000000000000000000000000000000600052604160045260246000fd5b612941826126bd565b810181811067ffffffffffffffff821117156129605761295f612909565b5b80604052505050565b60006129736127fc565b905061297f8282612938565b919050565b600067ffffffffffffffff82111561299f5761299e612909565b5b602082029050919050565b600080fd5b60006129c26129bd84612984565b612969565b905080602084028301858111156129dc576129db6129aa565b5b835b81811015612a0557806129f18882612885565b8452602084019350506020810190506129de565b5050509392505050565b600082601f830112612a2457612a23612904565b5b6002612a318482856129af565b91505092915050565b600067ffffffffffffffff821115612a5557612a54612909565b5b602082029050602081019050919050565b6000612a79612a7484612a3a565b612969565b90508083825260208201905060208402830185811115612a9c57612a9b6129aa565b5b835b81811015612ac55780612ab18882612885565b845260208401935050602081019050612a9e565b5050509392505050565b600082601f830112612ae457612ae3612904565b5b8135612af4848260208601612a66565b91505092915050565b60008060608385031215612b1457612b13612806565b5b6000612b2285828601612a0f565b925050604083013567ffffffffffffffff811115612b4357612b4261280b565b5b612b4f85828601612acf565b9150509250929050565b600060208284031215612b6f57612b6e612806565b5b6000612b7d84828501612885565b91505092915050565b600080600060608486031215612b9f57612b9e612806565b5b6000612bad86828701612859565b9350506020612bbe86828701612885565b9250506040612bcf86828701612885565b9150509250925092565b600082825260208201905092915050565b6000612bf58261266e565b612bff8185612bd9565b9350612c0f81856020860161268a565b612c18816126bd565b840191505092915050565b6000604082019050612c3860008301856128da565b8181036020830152612c4a8184612bea565b90509392505050565b600080fd5b600067ffffffffffffffff821115612c7357612c72612909565b5b612c7c826126bd565b9050602081019050919050565b82818337600083830152505050565b6000612cab612ca684612c58565b612969565b905082815260208101848484011115612cc757612cc6612c53565b5b612cd2848285612c89565b509392505050565b600082601f830112612cef57612cee612904565b5b8135612cff848260208601612c98565b91505092915050565b600060208284031215612d1e57612d1d612806565b5b600082013567ffffffffffffffff811115612d3c57612d3b61280b565b5b612d4884828501612cda565b91505092915050565b600067ffffffffffffffff821115612d6c57612d6b612909565b5b602082029050602081019050919050565b6000612d90612d8b84612d51565b612969565b90508083825260208201905060208402830185811115612db357612db26129aa565b5b835b81811015612dfa57803567ffffffffffffffff811115612dd857612dd7612904565b5b808601612de58982612acf565b85526020850194505050602081019050612db5565b5050509392505050565b600082601f830112612e1957612e18612904565b5b8135612e29848260208601612d7d565b91505092915050565b60008060008060a08587031215612e4c57612e4b612806565b5b600085013567ffffffffffffffff811115612e6a57612e6961280b565b5b612e7687828801612acf565b945050602085013567ffffffffffffffff811115612e9757612e9661280b565b5b612ea387828801612acf565b935050604085013567ffffffffffffffff811115612ec457612ec361280b565b5b612ed087828801612e04565b9250506060612ee187828801612a0f565b91505092959194509250565b60008115159050919050565b612f0281612eed565b82525050565b6000602082019050612f1d6000830184612ef9565b92915050565b600081519050919050565b600082825260208201905092915050565b6000819050602082019050919050565b612f5881612830565b82525050565b6000612f6a8383612f4f565b60208301905092915050565b6000602082019050919050565b6000612f8e82612f23565b612f988185612f2e565b9350612fa383612f3f565b8060005b83811015612fd4578151612fbb8882612f5e565b9750612fc683612f76565b925050600181019050612fa7565b5085935050505092915050565b60006020820190508181036000830152612ffb8184612f83565b905092915050565b600081519050919050565b600082825260208201905092915050565b6000819050602082019050919050565b600060029050919050565b600081905092915050565b6000819050919050565b600061305b838361265f565b60208301905092915050565b6000602082019050919050565b61307d8161302f565b613087818461303a565b925061309282613045565b8060005b838110156130c35781516130aa878261304f565b96506130b583613067565b925050600181019050613096565b505050505050565b60006130d78383613074565b60408301905092915050565b6000602082019050919050565b60006130fb82613003565b613105818561300e565b93506131108361301f565b8060005b8381101561314157815161312888826130cb565b9750613133836130e3565b925050600181019050613114565b5085935050505092915050565b6000602082019050818103600083015261316881846130f0565b905092915050565b61317981612830565b82525050565b60006020820190506131946000830184613170565b92915050565b600080600080600060c086880312156131b6576131b5612806565b5b600086013567ffffffffffffffff8111156131d4576131d361280b565b5b6131e088828901612acf565b955050602086013567ffffffffffffffff8111156132015761320061280b565b5b61320d88828901612acf565b945050604086013567ffffffffffffffff81111561322e5761322d61280b565b5b61323a88828901612e04565b935050606086013567ffffffffffffffff81111561325b5761325a61280b565b5b61326788828901612acf565b925050608061327888828901612a0f565b9150509295509295909350565b600080fd5b600080fd5b6000604082840312156132a5576132a4613285565b5b6132af6040612969565b9050600082013567ffffffffffffffff8111156132cf576132ce61328a565b5b6132db84828501612acf565b60008301525060206132ef84828501612885565b60208301525092915050565b60008060006060848603121561331457613313612806565b5b600084013567ffffffffffffffff8111156133325761333161280b565b5b61333e86828701612acf565b935050602084013567ffffffffffffffff81111561335f5761335e61280b565b5b61336b86828701612acf565b925050604084013567ffffffffffffffff81111561338c5761338b61280b565b5b6133988682870161328f565b9150509250925092565b6000602082840312156133b8576133b7612806565b5b60006133c684828501612859565b91505092915050565b7f4e487b7100000000000000000000000000000000000000000000000000000000600052602260045260246000fd5b6000600282049050600182168061341657607f821691505b602082108103613429576134286133cf565b5b50919050565b7f4e487b7100000000000000000000000000000000000000000000000000000000600052601160045260246000fd5b600061346982612655565b915061347483612655565b9250828210156134875761348661342f565b5b828203905092915050565b7f4e487b7100000000000000000000000000000000000000000000000000000000600052603260045260246000fd5b60006134cc82612655565b91507fffffffffffffffffffffffffffffffffffffffffffffffffffffffffffffffff82036134fe576134fd61342f565b5b600182019050919050565b7f4f6e6c792061646d696e2063616e20706572666f726d2074686973206163746960008201527f6f6e000000000000000000000000000000000000000000000000000000000000602082015250565b6000613565602283612bd9565b915061357082613509565b604082019050919050565b6000602082019050818103600083015261359481613558565b9050919050565b7f566f7465727320726567697374726174696f6e20706861736520656e64656400600082015250565b60006135d1601f83612bd9565b91506135dc8261359b565b602082019050919050565b60006020820190508181036000830152613600816135c4565b9050919050565b600061361282612655565b915061361d83612655565b9250817fffffffffffffffffffffffffffffffffffffffffffffffffffffffffffffffff04831182151516156136565761365561342f565b5b828202905092915050565b7f43616e64696461746520726567697374726174696f6e20706861736520656e6460008201527f6564000000000000000000000000000000000000000000000000000000000000602082015250565b60006136bd602283612bd9565b91506136c882613661565b604082019050919050565b600060208201905081810360008301526136ec816136b0565b9050919050565b60006136fe82612655565b915061370983612655565b9250827fffffffffffffffffffffffffffffffffffffffffffffffffffffffffffffffff0382111561373e5761373d61342f565b5b828201905092915050565b600060408201905061375e60008301856128da565b61376b60208301846128da565b9392505050565b6000815190506137818161286e565b92915050565b60006020828403121561379d5761379c612806565b5b60006137ab84828501613772565b91505092915050565b600060029050919050565b600081905092915050565b6000819050919050565b60008160001c9050919050565b6000819050919050565b60006137fe6137f9836137d4565b6137e1565b9050919050565b600061381182546137eb565b9050919050565b6000600182019050919050565b61382e816137b4565b61383881846137bf565b9250613843826137ca565b8060005b8381101561387b5761385882613805565b613862878261304f565b965061386d83613818565b925050600181019050613847565b505050505050565b600060608201905061389860008301856128da565b6138a56020830184613825565b9392505050565b60006138bf6138ba84612984565b612969565b905080602084028301858111156138d9576138d86129aa565b5b835b8181101561390257806138ee8882613772565b8452602084019350506020810190506138db565b5050509392505050565b600082601f83011261392157613920612904565b5b600261392e8482856138ac565b91505092915050565b60006040828403121561394d5761394c612806565b5b600061395b8482850161390c565b91505092915050565b61396d8161302f565b61397781846137bf565b925061398282613045565b8060005b838110156139b357815161399a878261304f565b96506139a583613067565b925050600181019050613986565b505050505050565b60006080820190506139d06000830185613964565b6139dd6040830184613964565b9392505050565b6139ed81612eed565b81146139f857600080fd5b50565b600081519050613a0a816139e4565b92915050565b600060208284031215613a2657613a25612806565b5b6000613a34848285016139fb565b91505092915050565b7f566f746520706861736520656e64656400000000000000000000000000000000600082015250565b6000613a73601083612bd9565b9150613a7e82613a3d565b602082019050919050565b60006020820190508181036000830152613aa281613a66565b9050919050565b7f57726f6e67207869730000000000000000000000000000000000000000000000600082015250565b6000613adf600983612bd9565b9150613aea82613aa9565b602082019050919050565b60006020820190508181036000830152613b0e81613ad2565b9050919050565b7f57726f6e67206e75730000000000000000000000000000000000000000000000600082015250565b6000613b4b600983612bd9565b9150613b5682613b15565b602082019050919050565b60006020820190508181036000830152613b7a81613b3e565b9050919050565b7f57726f6e672070726f6f66310000000000000000000000000000000000000000600082015250565b6000613bb7600c83612bd9565b9150613bc282613b81565b602082019050919050565b60006020820190508181036000830152613be681613baa565b9050919050565b7f57726f6e67205a4b506f4b310000000000000000000000000000000000000000600082015250565b6000613c23600c83612bd9565b9150613c2e82613bed565b602082019050919050565b60006020820190508181036000830152613c5281613c16565b9050919050565b6000606082019050613c6e60008301856128da565b613c7b6020830184613964565b9392505050565b6000604082019050613c976000830184613964565b9291505056fea26469706673582212205a16f79efd59df79750a8b4198ca46c87c2223e76e1b704ed9f834aa01e0310a64736f6c634300080d0033",
  "immutableReferences": {},
  "source": "// SPDX-License-Identifier: UNLICENSED\npragma solidity ^0.8.0;\nimport './Crypto.sol';\n\ncontract ScoreVoting {\n    struct Candidate {\n        uint id;\n        string name;\n    }\n\n//    struct PublicKeys {\n//        uint pubKey;\n//        uint[] pubKeysForCandidates;\n//    }\n\n    struct CommitmentProof {\n        uint[][] p1;\n        uint[] p2;\n    }\n\n    struct BallotProof {\n        uint[] p3;\n        uint p4;\n    }\n\n    struct Commitment {\n        uint[] xi;\n        uint[] nu;\n    }\n\n    struct Ballot {\n        uint[] beta;\n        uint[] gamma;\n    }\n\n    struct ZKPoK1_Proof {\n        uint[2] xi;\n        uint[2] nu;\n        uint c;\n        uint[2] Y;\n        uint X;\n        uint[] other;\n    }\n\n    struct Point {\n        uint[2] data;\n    }\n\n    address public admin;\n    Crypto crypto;\n    uint minScore;\n    uint maxScore;\n    mapping (address => uint[2]) public publicKeys; // key\n    mapping (address => uint[]) public publicKeysForCandidates; // key\n    mapping (uint => Candidate) public candidates;\n    mapping (uint => uint) public eachCandidateKeys; //???\n    mapping (address => uint[]) public commitmentsXi;\n    mapping (address => uint[]) public commitmentsNu;\n    mapping (address => uint[][]) public commitmentsProofs1; // dual zkp\n    mapping (address => uint[]) public commitmentsProofs2; // dual zkp\n    mapping (address => uint[]) public ballotsBeta;\n    mapping (address => uint[]) public ballotsGamma;\n    mapping (address => BallotProof) public ballotsProofs;\n    address[] public voters;\n\n    uint public totalScore;\n    uint public candidateCount; // need??\n\n    event VoteSubmitted(address voter, uint candidateId, bool vote);\n    event VotersRegistrationStarted();\n    event VotingStarted();\n    event VotingEnded();\n\n\n    // 0 - candidates registration\n    // 1 - voters registration\n    // 2 - commit phase\n    // 3 - vote phase\n    // 4 - vote ended\n    uint public votingState;\n\n    constructor(address _cryptoAddress) {\n        admin = msg.sender;\n        votingState = 0;\n        totalScore = 10;\n        minScore = 0;\n        maxScore = 5;\n        crypto = Crypto(_cryptoAddress);\n    }\n\n    modifier onlyAdmin() {\n        require(msg.sender == admin, \"Only admin can perform this action\");\n        _;\n    }\n\n\n    modifier candidateRegistrationPhase() {\n        require(votingState == 0, \"Candidate registration phase ended\");\n        _;\n    }\n\n    modifier votersRegistrationPhase() {\n        require(votingState == 1, \"Voters registration phase ended\");\n        _;\n    }\n\n    modifier commitPhase() {\n        require(votingState == 2, \"Commit phase ended\");\n        _;\n    }\n\n    modifier votePhase() {\n        require(votingState == 3, \"Vote phase ended\");\n        _;\n    }\n\n    modifier voteEnded() {\n        require(votingState == 4, \"Vote ended\");\n        _;\n    }\n\n    function getVotingStatus() public view returns (uint) {\n        return votingState;\n    }\n\n    function addCandidate(\n        string memory _name\n    ) public onlyAdmin candidateRegistrationPhase {\n        candidateCount++;\n        candidates[candidateCount] = Candidate(candidateCount, _name);//, 0, 0);\n    }\n\n    function getCandidates() public view returns (Candidate[] memory) {\n        Candidate[] memory _candidates = new Candidate[](candidateCount);\n        for (uint i = 1; i <= candidateCount; i++) {\n            _candidates[i - 1] = candidates[i];\n        }\n        return _candidates;\n    }\n\n    function startVotersRegistration() public onlyAdmin candidateRegistrationPhase {\n        votingState = 1;\n        emit VotersRegistrationStarted();\n    }\n\n    function startVoting() public onlyAdmin votersRegistrationPhase {\n        votingState = 3;\n        emit VotingStarted();\n    }\n\n    function endVoting() public onlyAdmin votePhase {\n        votingState = 4;\n        emit VotingEnded();\n    }\n\n    function getVoterPublicKeys() public view returns (uint[2][] memory allPubKeys) {\n        uint voterCount = voters.length;\n        allPubKeys = new uint[2][](voterCount);\n\n        for (uint i = 0; i < voterCount; i++) {\n            address voter = voters[i];\n            allPubKeys[i] = publicKeys[voter];\n        }\n\n        return allPubKeys;\n    }\n\n    function registerVoter(uint[2] memory _pubKey, uint[] memory _pubKeyForCandidates) public { // payable??\n        require(_pubKeyForCandidates.length == 2 * candidateCount); // 2 because each pub key is point\n        voters.push(msg.sender);\n        publicKeys[msg.sender] = _pubKey;\n        publicKeysForCandidates[msg.sender] = _pubKeyForCandidates;\n    }\n\n    function getVoters() public view returns (address[] memory) {\n        return voters;\n    }\n\n    function commitVote(uint[] memory commitmentXi, uint[] memory commitmentNu, uint[][] memory proof1, uint[] memory proof2, uint[2] memory W_i) public {\n        require(commitmentXi.length == candidateCount * 2, \"Wrong xis\");\n        require(commitmentNu.length == candidateCount * 2, \"Wrong nus\");\n        require(proof1.length == candidateCount, \"Wrong proof1\");\n        require(checkZKPoK1(commitmentXi, commitmentNu, proof1, W_i), \"Wrong ZKPoK1\");\n//        commitmentsXi[msg.sender] = commitmentXi;\n//        commitmentsNu[msg.sender] = commitmentNu;\n//        commitmentsProofs1[msg.sender] = proof1;\n//        commitmentsProofs2[msg.sender] = proof2;\n    }\n\n    function checkZKPoK1(uint[] memory xis, uint[] memory nus, uint[][] memory proof, uint[2] memory W_i) public view returns (bool) {\n        ZKPoK1_Proof memory p;\n        bool result = true;\n        for (uint i = 0; i < candidateCount; i++) {\n            uint d_sum = 0;\n            p.xi = [xis[i * 2], xis[i * 2 + 1]];\n            p.nu = [nus[i * 2], nus[i * 2 + 1]];\n            p.c = proof[i][0];\n            p.X = proof[i][1];\n            p.Y = [proof[i][2], proof[i][3]];\n            for (uint j = minScore; j <= maxScore; j++) {\n                d_sum = crypto.Add(d_sum, proof[i][8 + (j - minScore) * 6]);\n                result = result && ZKPoK1_Inners(p.xi, p.nu, proof[i], j, W_i);\n            }\n            result = result && (p.c == d_sum); // c = sum d\n            result = result && (crypto.Equal(\n                p.Y,\n                crypto.ecAdd(\n                    crypto.ecMul(p.c, publicKeys[msg.sender]),\n                    crypto.ecMul(p.X)\n                )\n            )); // Y = pubKey^c * g^X\n        }\n        return result;\n    }\n\n    function ZKPoK1_Inners(uint[2] memory xi, uint[2] memory nu, uint[] memory proof, uint j, uint[2] memory W_i) private view returns (bool) {\n        bool result = true;\n        Point memory a;\n        a.data = [proof[4 + (j - minScore) * 6], proof[5 + (j - minScore) * 6]];\n        Point memory b;\n        b.data = [proof[6 + (j - minScore) * 6], proof[7 + (j - minScore) * 6]];\n        uint d = proof[8 + (j - minScore) * 6];\n        uint e = proof[9 + (j - minScore) * 6];\n        result = result && ZKPoK11(xi, a.data, d, e); // a == g^e xi^d\n        result = result && ZKPoK12(nu, W_i, b.data, d, e, j); // check that b equals W_i^e * (nu/g^j)^d\n        return result;\n    }\n\n    function ZKPoK11(uint[2] memory xi, uint[2] memory a, uint d, uint e) private view returns (bool) {\n        return crypto.Equal(\n            crypto.ecAdd(crypto.ecMul(e), crypto.ecMul(d, xi)),\n            a\n        );\n    }\n\n    function ZKPoK12(uint[2] memory nu, uint[2] memory W_i, uint[2] memory b, uint d, uint e, uint j) private view returns (bool) {\n        uint[2] memory div = crypto.ecAdd(nu, crypto.ecNeg(crypto.ecMul(j)));\n        return crypto.Equal(\n            crypto.ecAdd(\n                crypto.ecMul(e, W_i),\n                crypto.ecMul(d, div)),\n            b\n        );\n    }\n\n    function vote(uint[] memory ballotBeta, uint[] memory ballotGamma, BallotProof memory proof) public {\n        require(ballotBeta.length == candidateCount);\n        require(ballotGamma.length == candidateCount);\n        require(proof.p3.length == candidateCount);\n        ballotsBeta[msg.sender] = ballotBeta;\n        ballotsGamma[msg.sender] = ballotGamma;\n        ballotsProofs[msg.sender] = proof;\n\n    }\n\n    function selfTallying() public onlyAdmin {\n        require(msg.sender == admin);\n//        uint [candidateCount] result; // here we get results\n//        return result;\n    }\n}\n",
  "sourcePath": "/Users/stanislav.kosorin/uni/btda-self-tallying-election/contracts/ScoreVoting.sol",
  "compiler": {
    "name": "solc",
    "version": "0.8.13+commit.abaa5c0e.Emscripten.clang"
  },
  "schemaVersion": "3.4.16",
  "updatedAt": "2024-07-15T13:44:55.197Z",
  "networkType": "ethereum",
  "devdoc": {
    "kind": "dev",
    "methods": {},
    "version": 1
  },
  "userdoc": {
    "kind": "user",
    "methods": {},
    "version": 1
  }
}