{
  "contractName": "ScoreVoting",
  "abi": [
    {
      "inputs": [
        {
          "internalType": "address",
          "name": "_cryptoAddress",
          "type": "address"
        }
      ],
      "stateMutability": "nonpayable",
      "type": "constructor"
    },
    {
      "anonymous": false,
      "inputs": [
        {
          "indexed": false,
          "internalType": "address",
          "name": "voter",
          "type": "address"
        },
        {
          "indexed": false,
          "internalType": "uint256",
          "name": "candidateId",
          "type": "uint256"
        },
        {
          "indexed": false,
          "internalType": "bool",
          "name": "vote",
          "type": "bool"
        }
      ],
      "name": "VoteSubmitted",
      "type": "event"
    },
    {
      "anonymous": false,
      "inputs": [],
      "name": "VotersRegistrationStarted",
      "type": "event"
    },
    {
      "anonymous": false,
      "inputs": [],
      "name": "VotingEnded",
      "type": "event"
    },
    {
      "anonymous": false,
      "inputs": [],
      "name": "VotingStarted",
      "type": "event"
    },
    {
      "inputs": [],
      "name": "admin",
      "outputs": [
        {
          "internalType": "address",
          "name": "",
          "type": "address"
        }
      ],
      "stateMutability": "view",
      "type": "function",
      "constant": true
    },
    {
      "inputs": [
        {
          "internalType": "address",
          "name": "",
          "type": "address"
        },
        {
          "internalType": "uint256",
          "name": "",
          "type": "uint256"
        }
      ],
      "name": "ballotsBeta",
      "outputs": [
        {
          "internalType": "uint256",
          "name": "",
          "type": "uint256"
        }
      ],
      "stateMutability": "view",
      "type": "function",
      "constant": true
    },
    {
      "inputs": [
        {
          "internalType": "address",
          "name": "",
          "type": "address"
        },
        {
          "internalType": "uint256",
          "name": "",
          "type": "uint256"
        }
      ],
      "name": "ballotsGamma",
      "outputs": [
        {
          "internalType": "uint256",
          "name": "",
          "type": "uint256"
        }
      ],
      "stateMutability": "view",
      "type": "function",
      "constant": true
    },
    {
      "inputs": [
        {
          "internalType": "address",
          "name": "",
          "type": "address"
        }
      ],
      "name": "ballotsProofs",
      "outputs": [
        {
          "internalType": "uint256",
          "name": "p4",
          "type": "uint256"
        }
      ],
      "stateMutability": "view",
      "type": "function",
      "constant": true
    },
    {
      "inputs": [],
      "name": "candidateCount",
      "outputs": [
        {
          "internalType": "uint256",
          "name": "",
          "type": "uint256"
        }
      ],
      "stateMutability": "view",
      "type": "function",
      "constant": true
    },
    {
      "inputs": [
        {
          "internalType": "uint256",
          "name": "",
          "type": "uint256"
        }
      ],
      "name": "candidates",
      "outputs": [
        {
          "internalType": "uint256",
          "name": "id",
          "type": "uint256"
        },
        {
          "internalType": "string",
          "name": "name",
          "type": "string"
        }
      ],
      "stateMutability": "view",
      "type": "function",
      "constant": true
    },
    {
      "inputs": [
        {
          "internalType": "address",
          "name": "",
          "type": "address"
        },
        {
          "internalType": "uint256",
          "name": "",
          "type": "uint256"
        }
      ],
      "name": "commitmentsNu",
      "outputs": [
        {
          "internalType": "uint256",
          "name": "",
          "type": "uint256"
        }
      ],
      "stateMutability": "view",
      "type": "function",
      "constant": true
    },
    {
      "inputs": [
        {
          "internalType": "address",
          "name": "",
          "type": "address"
        },
        {
          "internalType": "uint256",
          "name": "",
          "type": "uint256"
        },
        {
          "internalType": "uint256",
          "name": "",
          "type": "uint256"
        }
      ],
      "name": "commitmentsProofs1",
      "outputs": [
        {
          "internalType": "uint256",
          "name": "",
          "type": "uint256"
        }
      ],
      "stateMutability": "view",
      "type": "function",
      "constant": true
    },
    {
      "inputs": [
        {
          "internalType": "address",
          "name": "",
          "type": "address"
        },
        {
          "internalType": "uint256",
          "name": "",
          "type": "uint256"
        }
      ],
      "name": "commitmentsProofs2",
      "outputs": [
        {
          "internalType": "uint256",
          "name": "",
          "type": "uint256"
        }
      ],
      "stateMutability": "view",
      "type": "function",
      "constant": true
    },
    {
      "inputs": [
        {
          "internalType": "address",
          "name": "",
          "type": "address"
        },
        {
          "internalType": "uint256",
          "name": "",
          "type": "uint256"
        }
      ],
      "name": "commitmentsXi",
      "outputs": [
        {
          "internalType": "uint256",
          "name": "",
          "type": "uint256"
        }
      ],
      "stateMutability": "view",
      "type": "function",
      "constant": true
    },
    {
      "inputs": [
        {
          "internalType": "uint256",
          "name": "",
          "type": "uint256"
        }
      ],
      "name": "eachCandidateKeys",
      "outputs": [
        {
          "internalType": "uint256",
          "name": "",
          "type": "uint256"
        }
      ],
      "stateMutability": "view",
      "type": "function",
      "constant": true
    },
    {
      "inputs": [
        {
          "internalType": "address",
          "name": "",
          "type": "address"
        },
        {
          "internalType": "uint256",
          "name": "",
          "type": "uint256"
        }
      ],
      "name": "publicKeys",
      "outputs": [
        {
          "internalType": "uint256",
          "name": "",
          "type": "uint256"
        }
      ],
      "stateMutability": "view",
      "type": "function",
      "constant": true
    },
    {
      "inputs": [
        {
          "internalType": "address",
          "name": "",
          "type": "address"
        },
        {
          "internalType": "uint256",
          "name": "",
          "type": "uint256"
        }
      ],
      "name": "publicKeysForCandidates",
      "outputs": [
        {
          "internalType": "uint256",
          "name": "",
          "type": "uint256"
        }
      ],
      "stateMutability": "view",
      "type": "function",
      "constant": true
    },
    {
      "inputs": [],
      "name": "totalScore",
      "outputs": [
        {
          "internalType": "uint256",
          "name": "",
          "type": "uint256"
        }
      ],
      "stateMutability": "view",
      "type": "function",
      "constant": true
    },
    {
      "inputs": [
        {
          "internalType": "uint256",
          "name": "",
          "type": "uint256"
        }
      ],
      "name": "voters",
      "outputs": [
        {
          "internalType": "address",
          "name": "",
          "type": "address"
        }
      ],
      "stateMutability": "view",
      "type": "function",
      "constant": true
    },
    {
      "inputs": [],
      "name": "votingState",
      "outputs": [
        {
          "internalType": "uint256",
          "name": "",
          "type": "uint256"
        }
      ],
      "stateMutability": "view",
      "type": "function",
      "constant": true
    },
    {
      "inputs": [],
      "name": "getVotingStatus",
      "outputs": [
        {
          "internalType": "uint256",
          "name": "",
          "type": "uint256"
        }
      ],
      "stateMutability": "view",
      "type": "function",
      "constant": true
    },
    {
      "inputs": [
        {
          "internalType": "string",
          "name": "_name",
          "type": "string"
        }
      ],
      "name": "addCandidate",
      "outputs": [],
      "stateMutability": "nonpayable",
      "type": "function"
    },
    {
      "inputs": [],
      "name": "getCandidates",
      "outputs": [
        {
          "components": [
            {
              "internalType": "uint256",
              "name": "id",
              "type": "uint256"
            },
            {
              "internalType": "string",
              "name": "name",
              "type": "string"
            }
          ],
          "internalType": "struct ScoreVoting.Candidate[]",
          "name": "",
          "type": "tuple[]"
        }
      ],
      "stateMutability": "view",
      "type": "function",
      "constant": true
    },
    {
      "inputs": [],
      "name": "startVotersRegistration",
      "outputs": [],
      "stateMutability": "nonpayable",
      "type": "function"
    },
    {
      "inputs": [],
      "name": "startVoting",
      "outputs": [],
      "stateMutability": "nonpayable",
      "type": "function"
    },
    {
      "inputs": [],
      "name": "endVoting",
      "outputs": [],
      "stateMutability": "nonpayable",
      "type": "function"
    },
    {
      "inputs": [
        {
          "internalType": "uint256[2]",
          "name": "_pubKey",
          "type": "uint256[2]"
        },
        {
          "internalType": "uint256[]",
          "name": "_pubKeyForCandidates",
          "type": "uint256[]"
        }
      ],
      "name": "registerVoter",
      "outputs": [],
      "stateMutability": "nonpayable",
      "type": "function"
    },
    {
      "inputs": [
        {
          "internalType": "uint256[]",
          "name": "commitmentXi",
          "type": "uint256[]"
        },
        {
          "internalType": "uint256[]",
          "name": "commitmentNu",
          "type": "uint256[]"
        },
        {
          "internalType": "uint256[][]",
          "name": "proof1",
          "type": "uint256[][]"
        },
        {
          "internalType": "uint256[]",
          "name": "proof2",
          "type": "uint256[]"
        },
        {
          "internalType": "uint256[2]",
          "name": "W_i",
          "type": "uint256[2]"
        }
      ],
      "name": "commitVote",
      "outputs": [],
      "stateMutability": "nonpayable",
      "type": "function"
    },
    {
      "inputs": [
        {
          "internalType": "uint256[][]",
          "name": "proof",
          "type": "uint256[][]"
        },
        {
          "internalType": "uint256[2]",
          "name": "W_i",
          "type": "uint256[2]"
        }
      ],
      "name": "checkZKPoK1",
      "outputs": [
        {
          "internalType": "bool",
          "name": "",
          "type": "bool"
        }
      ],
      "stateMutability": "view",
      "type": "function",
      "constant": true
    },
    {
      "inputs": [
        {
          "internalType": "uint256[]",
          "name": "ballotBeta",
          "type": "uint256[]"
        },
        {
          "internalType": "uint256[]",
          "name": "ballotGamma",
          "type": "uint256[]"
        },
        {
          "components": [
            {
              "internalType": "uint256[]",
              "name": "p3",
              "type": "uint256[]"
            },
            {
              "internalType": "uint256",
              "name": "p4",
              "type": "uint256"
            }
          ],
          "internalType": "struct ScoreVoting.BallotProof",
          "name": "proof",
          "type": "tuple"
        }
      ],
      "name": "vote",
      "outputs": [],
      "stateMutability": "nonpayable",
      "type": "function"
    },
    {
      "inputs": [],
      "name": "selfTallying",
      "outputs": [],
      "stateMutability": "nonpayable",
      "type": "function"
    }
  ],
  "bytecode": "0x60806040523480156200001157600080fd5b50604051620038d3380380620038d3833981810160405281019062000037919062000141565b336000806101000a81548173ffffffffffffffffffffffffffffffffffffffff021916908373ffffffffffffffffffffffffffffffffffffffff160217905550600a6010819055506000600281905550600560038190555080600160006101000a81548173ffffffffffffffffffffffffffffffffffffffff021916908373ffffffffffffffffffffffffffffffffffffffff1602179055505062000173565b600080fd5b600073ffffffffffffffffffffffffffffffffffffffff82169050919050565b60006200010982620000dc565b9050919050565b6200011b81620000fc565b81146200012757600080fd5b50565b6000815190506200013b8162000110565b92915050565b6000602082840312156200015a5762000159620000d7565b5b60006200016a848285016200012a565b91505092915050565b61375080620001836000396000f3fe608060405234801561001057600080fd5b50600436106101a95760003560e01c806386c69133116100f9578063d98b855211610097578063e335773c11610071578063e335773c146104e5578063e33eb3de14610501578063f851a4401461051d578063f8de1bcd1461053b576101a9565b8063d98b855214610455578063da58c7d914610485578063dd11658b146104b5576101a9565b8063a9a981a3116100d3578063a9a981a3146103f1578063b62312bf1461040f578063c006719f1461042d578063c3403ddf1461044b576101a9565b806386c69133146103875780638e810337146103b757806398e090fe146103e7576101a9565b806328cbe0dc11610166578063462e91ec11610140578063462e91ec14610313578063581c281c1461032f578063716a388b1461034d578063732b63d414610357576101a9565b806328cbe0dc146102825780632eaf1400146102b25780633477ee2e146102e2576101a9565b806306a49fce146101ae57806310782555146101cc5780631ec6b60a146101fc57806322cb29ff14610206578063258cacfe1461023657806328851e1914610266575b600080fd5b6101b661056b565b6040516101c391906126cf565b60405180910390f35b6101e660048036038101906101e1919061278f565b6106d6565b6040516101f391906127de565b60405180910390f35b6102046106fe565b005b610220600480360381019061021b9190612ad3565b610807565b60405161022d9190612b4a565b60405180910390f35b610250600480360381019061024b919061278f565b610dec565b60405161025d91906127de565b60405180910390f35b610280600480360381019061027b9190612b65565b610e1d565b005b61029c60048036038101906102979190612bc1565b610f42565b6040516102a991906127de565b60405180910390f35b6102cc60048036038101906102c79190612bee565b610f5a565b6040516102d991906127de565b60405180910390f35b6102fc60048036038101906102f79190612bc1565b610fa4565b60405161030a929190612c8b565b60405180910390f35b61032d60048036038101906103289190612d70565b611050565b005b610337611194565b60405161034491906127de565b60405180910390f35b61035561119e565b005b610371600480360381019061036c919061278f565b611286565b60405161037e91906127de565b60405180910390f35b6103a1600480360381019061039c919061278f565b6112b7565b6040516103ae91906127de565b60405180910390f35b6103d160048036038101906103cc919061278f565b6112e8565b6040516103de91906127de565b60405180910390f35b6103ef611319565b005b6103f9611422565b60405161040691906127de565b60405180910390f35b610417611428565b60405161042491906127de565b60405180910390f35b61043561142e565b60405161044291906127de565b60405180910390f35b610453611434565b005b61046f600480360381019061046a919061278f565b61153d565b60405161047c91906127de565b60405180910390f35b61049f600480360381019061049a9190612bc1565b61156e565b6040516104ac9190612dc8565b60405180910390f35b6104cf60048036038101906104ca919061278f565b6115ad565b6040516104dc91906127de565b60405180910390f35b6104ff60048036038101906104fa9190612de3565b6115de565b005b61051b60048036038101906105169190612f44565b611775565b005b6105256118bd565b6040516105329190612dc8565b60405180910390f35b61055560048036038101906105509190612feb565b6118e1565b60405161056291906127de565b60405180910390f35b6060600060115467ffffffffffffffff81111561058b5761058a6127fe565b5b6040519080825280602002602001820160405280156105c457816020015b6105b16122ac565b8152602001906001900390816105a95790505b5090506000600190505b60115481116106ce57600660008281526020019081526020016000206040518060400160405290816000820154815260200160018201805461060f90613047565b80601f016020809104026020016040519081016040528092919081815260200182805461063b90613047565b80156106885780601f1061065d57610100808354040283529160200191610688565b820191906000526020600020905b81548152906001019060200180831161066b57829003601f168201915b5050505050815250508260018361069f91906130a7565b815181106106b0576106af6130db565b5b602002602001018190525080806106c69061310a565b9150506105ce565b508091505090565b600460205281600052604060002081600281106106f257600080fd5b01600091509150505481565b60008054906101000a900473ffffffffffffffffffffffffffffffffffffffff1673ffffffffffffffffffffffffffffffffffffffff163373ffffffffffffffffffffffffffffffffffffffff161461078c576040517f08c379a0000000000000000000000000000000000000000000000000000000008152600401610783906131c4565b60405180910390fd5b6001601254146107d1576040517f08c379a00000000000000000000000000000000000000000000000000000000081526004016107c890613230565b60405180910390fd5b60036012819055507f877e2548498f42b7975a186b94ef1d32c86d420b7b806dd2be2bea293b89590460405160405180910390a1565b60006108116122c6565b60006001905060005b601154811015610de05760006040518060400160405280888481518110610844576108436130db565b5b602002602001015160008151811061085f5761085e6130db565b5b6020026020010151815260200188848151811061087f5761087e6130db565b5b602002602001015160018151811061089a576108996130db565b5b6020026020010151815250846000018190525060405180604001604052808884815181106108cb576108ca6130db565b5b60200260200101516002815181106108e6576108e56130db565b5b60200260200101518152602001888481518110610906576109056130db565b5b6020026020010151600381518110610921576109206130db565b5b60200260200101518152508460200181905250868281518110610947576109466130db565b5b6020026020010151600481518110610962576109616130db565b5b6020026020010151846040018181525050868281518110610986576109856130db565b5b60200260200101516005815181106109a1576109a06130db565b5b602002602001015184608001818152505060405180604001604052808884815181106109d0576109cf6130db565b5b60200260200101516006815181106109eb576109ea6130db565b5b60200260200101518152602001888481518110610a0b57610a0a6130db565b5b6020026020010151600781518110610a2657610a256130db565b5b60200260200101518152508460600181905250600060025490505b6003548111610af457878381518110610a5d57610a5c6130db565b5b6020026020010151600660025483610a7591906130a7565b610a7f9190613250565b600c610a8b91906132aa565b81518110610a9c57610a9b6130db565b5b602002602001015182610aaf91906132aa565b9150838015610adf5750610ade888481518110610acf57610ace6130db565b5b602002602001015182896118ff565b5b93508280610aec9061310a565b935050610a41565b50828015610b055750808460400151145b9250828015610dca5750600160009054906101000a900473ffffffffffffffffffffffffffffffffffffffff1673ffffffffffffffffffffffffffffffffffffffff1663440c68b88560600151600160009054906101000a900473ffffffffffffffffffffffffffffffffffffffff1673ffffffffffffffffffffffffffffffffffffffff1663a867d0ca600160009054906101000a900473ffffffffffffffffffffffffffffffffffffffff1673ffffffffffffffffffffffffffffffffffffffff1663175d2bd58a60400151600460003373ffffffffffffffffffffffffffffffffffffffff1673ffffffffffffffffffffffffffffffffffffffff1681526020019081526020016000206040518363ffffffff1660e01b8152600401610c2f9291906133e7565b6040805180830381865afa158015610c4b573d6000803e3d6000fd5b505050506040513d601f19601f82011682018060405250810190610c6f91906134b0565b600160009054906101000a900473ffffffffffffffffffffffffffffffffffffffff1673ffffffffffffffffffffffffffffffffffffffff1663bf196cda8b608001516040518263ffffffff1660e01b8152600401610cce91906127de565b6040805180830381865afa158015610cea573d6000803e3d6000fd5b505050506040513d601f19601f82011682018060405250810190610d0e91906134b0565b6040518363ffffffff1660e01b8152600401610d2b929190613556565b6040805180830381865afa158015610d47573d6000803e3d6000fd5b505050506040513d601f19601f82011682018060405250810190610d6b91906134b0565b6040518363ffffffff1660e01b8152600401610d88929190613556565b602060405180830381865afa158015610da5573d6000803e3d6000fd5b505050506040513d601f19601f82011682018060405250810190610dc991906135ab565b5b9250508080610dd89061310a565b91505061081a565b50809250505092915050565b600c6020528160005260406000208181548110610e0857600080fd5b90600052602060002001600091509150505481565b6011546002610e2c9190613250565b815114610e3857600080fd5b600f339080600181540180825580915050600190039060005260206000200160009091909190916101000a81548173ffffffffffffffffffffffffffffffffffffffff021916908373ffffffffffffffffffffffffffffffffffffffff16021790555081600460003373ffffffffffffffffffffffffffffffffffffffff1673ffffffffffffffffffffffffffffffffffffffff168152602001908152602001600020906002610ee992919061230e565b5080600560003373ffffffffffffffffffffffffffffffffffffffff1673ffffffffffffffffffffffffffffffffffffffff1681526020019081526020016000209080519060200190610f3d92919061234e565b505050565b60076020528060005260406000206000915090505481565b600a6020528260005260406000208281548110610f7657600080fd5b906000526020600020018181548110610f8e57600080fd5b9060005260206000200160009250925050505481565b6006602052806000526040600020600091509050806000015490806001018054610fcd90613047565b80601f0160208091040260200160405190810160405280929190818152602001828054610ff990613047565b80156110465780601f1061101b57610100808354040283529160200191611046565b820191906000526020600020905b81548152906001019060200180831161102957829003601f168201915b5050505050905082565b60008054906101000a900473ffffffffffffffffffffffffffffffffffffffff1673ffffffffffffffffffffffffffffffffffffffff163373ffffffffffffffffffffffffffffffffffffffff16146110de576040517f08c379a00000000000000000000000000000000000000000000000000000000081526004016110d5906131c4565b60405180910390fd5b600060125414611123576040517f08c379a000000000000000000000000000000000000000000000000000000000815260040161111a9061364a565b60405180910390fd5b601160008154809291906111369061310a565b9190505550604051806040016040528060115481526020018281525060066000601154815260200190815260200160002060008201518160000155602082015181600101908051906020019061118d92919061239b565b5090505050565b6000601254905090565b60008054906101000a900473ffffffffffffffffffffffffffffffffffffffff1673ffffffffffffffffffffffffffffffffffffffff163373ffffffffffffffffffffffffffffffffffffffff161461122c576040517f08c379a0000000000000000000000000000000000000000000000000000000008152600401611223906131c4565b60405180910390fd5b60008054906101000a900473ffffffffffffffffffffffffffffffffffffffff1673ffffffffffffffffffffffffffffffffffffffff163373ffffffffffffffffffffffffffffffffffffffff161461128457600080fd5b565b600560205281600052604060002081815481106112a257600080fd5b90600052602060002001600091509150505481565b600b60205281600052604060002081815481106112d357600080fd5b90600052602060002001600091509150505481565b600d602052816000526040600020818154811061130457600080fd5b90600052602060002001600091509150505481565b60008054906101000a900473ffffffffffffffffffffffffffffffffffffffff1673ffffffffffffffffffffffffffffffffffffffff163373ffffffffffffffffffffffffffffffffffffffff16146113a7576040517f08c379a000000000000000000000000000000000000000000000000000000000815260040161139e906131c4565b60405180910390fd5b6000601254146113ec576040517f08c379a00000000000000000000000000000000000000000000000000000000081526004016113e39061364a565b60405180910390fd5b60016012819055507f04c14f507b823206de91bd964bbb0a515886a12d00f420ab00a9668769ffc8a660405160405180910390a1565b60115481565b60125481565b60105481565b60008054906101000a900473ffffffffffffffffffffffffffffffffffffffff1673ffffffffffffffffffffffffffffffffffffffff163373ffffffffffffffffffffffffffffffffffffffff16146114c2576040517f08c379a00000000000000000000000000000000000000000000000000000000081526004016114b9906131c4565b60405180910390fd5b600360125414611507576040517f08c379a00000000000000000000000000000000000000000000000000000000081526004016114fe906136b6565b60405180910390fd5b60046012819055507f7a19ed057db79e3c2fa0b97a54b43bef4fce74b31bb6c01af514b9a18a7f70ab60405160405180910390a1565b6009602052816000526040600020818154811061155957600080fd5b90600052602060002001600091509150505481565b600f818154811061157e57600080fd5b906000526020600020016000915054906101000a900473ffffffffffffffffffffffffffffffffffffffff1681565b600860205281600052604060002081815481106115c957600080fd5b90600052602060002001600091509150505481565b6011548551146115ed57600080fd5b6011548451146115fc57600080fd5b60115483511461160b57600080fd5b6116158382610807565b61161e57600080fd5b84600860003373ffffffffffffffffffffffffffffffffffffffff1673ffffffffffffffffffffffffffffffffffffffff168152602001908152602001600020908051906020019061167192919061234e565b5083600960003373ffffffffffffffffffffffffffffffffffffffff1673ffffffffffffffffffffffffffffffffffffffff16815260200190815260200160002090805190602001906116c592919061234e565b5082600a60003373ffffffffffffffffffffffffffffffffffffffff1673ffffffffffffffffffffffffffffffffffffffff1681526020019081526020016000209080519060200190611719929190612421565b5081600b60003373ffffffffffffffffffffffffffffffffffffffff1673ffffffffffffffffffffffffffffffffffffffff168152602001908152602001600020908051906020019061176d92919061234e565b505050505050565b60115483511461178457600080fd5b60115482511461179357600080fd5b601154816000015151146117a657600080fd5b82600c60003373ffffffffffffffffffffffffffffffffffffffff1673ffffffffffffffffffffffffffffffffffffffff16815260200190815260200160002090805190602001906117f992919061234e565b5081600d60003373ffffffffffffffffffffffffffffffffffffffff1673ffffffffffffffffffffffffffffffffffffffff168152602001908152602001600020908051906020019061184d92919061234e565b5080600e60003373ffffffffffffffffffffffffffffffffffffffff1673ffffffffffffffffffffffffffffffffffffffff16815260200190815260200160002060008201518160000190805190602001906118aa92919061234e565b5060208201518160010155905050505050565b60008054906101000a900473ffffffffffffffffffffffffffffffffffffffff1681565b600e6020528060005260406000206000915090508060010154905081565b6000806001905061190e612481565b60405180604001604052808760066002548961192a91906130a7565b6119349190613250565b600861194091906132aa565b81518110611951576119506130db565b5b602002602001015181526020018760066002548961196f91906130a7565b6119799190613250565b600961198591906132aa565b81518110611996576119956130db565b5b602002602001015181525081600001819052506119b1612481565b60405180604001604052808860066002548a6119cd91906130a7565b6119d79190613250565b600a6119e391906132aa565b815181106119f4576119f36130db565b5b602002602001015181526020018860066002548a611a1291906130a7565b611a1c9190613250565b600b611a2891906132aa565b81518110611a3957611a386130db565b5b60200260200101518152508160000181905250611a54612481565b604051806040016040528089600081518110611a7357611a726130db565b5b6020026020010151815260200189600181518110611a9457611a936130db565b5b60200260200101518152508160000181905250611aaf612481565b60405180604001604052808a600281518110611ace57611acd6130db565b5b602002602001015181526020018a600381518110611aef57611aee6130db565b5b6020026020010151815250816000018190525060008960066002548b611b1591906130a7565b611b1f9190613250565b600c611b2b91906132aa565b81518110611b3c57611b3b6130db565b5b6020026020010151905060008a60066002548c611b5991906130a7565b611b639190613250565b600d611b6f91906132aa565b81518110611b8057611b7f6130db565b5b60200260200101519050868015611ba35750611ba28487600001518484611bd3565b5b9650868015611bc05750611bbf838a876000015185858f611e53565b5b9650869750505050505050509392505050565b6000600160009054906101000a900473ffffffffffffffffffffffffffffffffffffffff1673ffffffffffffffffffffffffffffffffffffffff1663440c68b8600160009054906101000a900473ffffffffffffffffffffffffffffffffffffffff1673ffffffffffffffffffffffffffffffffffffffff1663a867d0ca600160009054906101000a900473ffffffffffffffffffffffffffffffffffffffff1673ffffffffffffffffffffffffffffffffffffffff1663bf196cda876040518263ffffffff1660e01b8152600401611cac91906127de565b6040805180830381865afa158015611cc8573d6000803e3d6000fd5b505050506040513d601f19601f82011682018060405250810190611cec91906134b0565b600160009054906101000a900473ffffffffffffffffffffffffffffffffffffffff1673ffffffffffffffffffffffffffffffffffffffff1663175d2bd5898c600001516040518363ffffffff1660e01b8152600401611d4d9291906136d6565b6040805180830381865afa158015611d69573d6000803e3d6000fd5b505050506040513d601f19601f82011682018060405250810190611d8d91906134b0565b6040518363ffffffff1660e01b8152600401611daa929190613556565b6040805180830381865afa158015611dc6573d6000803e3d6000fd5b505050506040513d601f19601f82011682018060405250810190611dea91906134b0565b866040518363ffffffff1660e01b8152600401611e08929190613556565b602060405180830381865afa158015611e25573d6000803e3d6000fd5b505050506040513d601f19601f82011682018060405250810190611e4991906135ab565b9050949350505050565b600080600160009054906101000a900473ffffffffffffffffffffffffffffffffffffffff1673ffffffffffffffffffffffffffffffffffffffff1663a867d0ca8960000151600160009054906101000a900473ffffffffffffffffffffffffffffffffffffffff1673ffffffffffffffffffffffffffffffffffffffff16639d30676f600160009054906101000a900473ffffffffffffffffffffffffffffffffffffffff1673ffffffffffffffffffffffffffffffffffffffff1663bf196cda896040518263ffffffff1660e01b8152600401611f3291906127de565b6040805180830381865afa158015611f4e573d6000803e3d6000fd5b505050506040513d601f19601f82011682018060405250810190611f7291906134b0565b6040518263ffffffff1660e01b8152600401611f8e91906136ff565b6040805180830381865afa158015611faa573d6000803e3d6000fd5b505050506040513d601f19601f82011682018060405250810190611fce91906134b0565b6040518363ffffffff1660e01b8152600401611feb929190613556565b6040805180830381865afa158015612007573d6000803e3d6000fd5b505050506040513d601f19601f8201168201806040525081019061202b91906134b0565b9050600160009054906101000a900473ffffffffffffffffffffffffffffffffffffffff1673ffffffffffffffffffffffffffffffffffffffff1663440c68b8600160009054906101000a900473ffffffffffffffffffffffffffffffffffffffff1673ffffffffffffffffffffffffffffffffffffffff1663a867d0ca600160009054906101000a900473ffffffffffffffffffffffffffffffffffffffff1673ffffffffffffffffffffffffffffffffffffffff1663175d2bd58a8d6040518363ffffffff1660e01b81526004016121069291906136d6565b6040805180830381865afa158015612122573d6000803e3d6000fd5b505050506040513d601f19601f8201168201806040525081019061214691906134b0565b600160009054906101000a900473ffffffffffffffffffffffffffffffffffffffff1673ffffffffffffffffffffffffffffffffffffffff1663175d2bd58a886040518363ffffffff1660e01b81526004016121a39291906136d6565b6040805180830381865afa1580156121bf573d6000803e3d6000fd5b505050506040513d601f19601f820116820180604052508101906121e391906134b0565b6040518363ffffffff1660e01b8152600401612200929190613556565b6040805180830381865afa15801561221c573d6000803e3d6000fd5b505050506040513d601f19601f8201168201806040525081019061224091906134b0565b886040518363ffffffff1660e01b815260040161225e929190613556565b602060405180830381865afa15801561227b573d6000803e3d6000fd5b505050506040513d601f19601f8201168201806040525081019061229f91906135ab565b9150509695505050505050565b604051806040016040528060008152602001606081525090565b6040518060c001604052806122d961249a565b81526020016122e661249a565b8152602001600081526020016122fa61249a565b815260200160008152602001606081525090565b826002810192821561233d579160200282015b8281111561233c578251825591602001919060010190612321565b5b50905061234a91906124bc565b5090565b82805482825590600052602060002090810192821561238a579160200282015b8281111561238957825182559160200191906001019061236e565b5b50905061239791906124bc565b5090565b8280546123a790613047565b90600052602060002090601f0160209004810192826123c95760008555612410565b82601f106123e257805160ff1916838001178555612410565b82800160010185558215612410579182015b8281111561240f5782518255916020019190600101906123f4565b5b50905061241d91906124bc565b5090565b828054828255906000526020600020908101928215612470579160200282015b8281111561246f57825182908051906020019061245f92919061234e565b5091602001919060010190612441565b5b50905061247d91906124d9565b5090565b604051806020016040528061249461249a565b81525090565b6040518060400160405280600290602082028036833780820191505090505090565b5b808211156124d55760008160009055506001016124bd565b5090565b5b808211156124f957600081816124f091906124fd565b506001016124da565b5090565b508054600082559060005260206000209081019061251b91906124bc565b50565b600081519050919050565b600082825260208201905092915050565b6000819050602082019050919050565b6000819050919050565b61255d8161254a565b82525050565b600081519050919050565b600082825260208201905092915050565b60005b8381101561259d578082015181840152602081019050612582565b838111156125ac576000848401525b50505050565b6000601f19601f8301169050919050565b60006125ce82612563565b6125d8818561256e565b93506125e881856020860161257f565b6125f1816125b2565b840191505092915050565b60006040830160008301516126146000860182612554565b506020830151848203602086015261262c82826125c3565b9150508091505092915050565b600061264583836125fc565b905092915050565b6000602082019050919050565b60006126658261251e565b61266f8185612529565b9350836020820285016126818561253a565b8060005b858110156126bd578484038952815161269e8582612639565b94506126a98361264d565b925060208a01995050600181019050612685565b50829750879550505050505092915050565b600060208201905081810360008301526126e9818461265a565b905092915050565b6000604051905090565b600080fd5b600080fd5b600073ffffffffffffffffffffffffffffffffffffffff82169050919050565b600061273082612705565b9050919050565b61274081612725565b811461274b57600080fd5b50565b60008135905061275d81612737565b92915050565b61276c8161254a565b811461277757600080fd5b50565b60008135905061278981612763565b92915050565b600080604083850312156127a6576127a56126fb565b5b60006127b48582860161274e565b92505060206127c58582860161277a565b9150509250929050565b6127d88161254a565b82525050565b60006020820190506127f360008301846127cf565b92915050565b600080fd5b7f4e487b7100000000000000000000000000000000000000000000000000000000600052604160045260246000fd5b612836826125b2565b810181811067ffffffffffffffff82111715612855576128546127fe565b5b80604052505050565b60006128686126f1565b9050612874828261282d565b919050565b600067ffffffffffffffff821115612894576128936127fe565b5b602082029050602081019050919050565b600080fd5b600067ffffffffffffffff8211156128c5576128c46127fe565b5b602082029050602081019050919050565b60006128e96128e4846128aa565b61285e565b9050808382526020820190506020840283018581111561290c5761290b6128a5565b5b835b818110156129355780612921888261277a565b84526020840193505060208101905061290e565b5050509392505050565b600082601f830112612954576129536127f9565b5b81356129648482602086016128d6565b91505092915050565b600061298061297b84612879565b61285e565b905080838252602082019050602084028301858111156129a3576129a26128a5565b5b835b818110156129ea57803567ffffffffffffffff8111156129c8576129c76127f9565b5b8086016129d5898261293f565b855260208501945050506020810190506129a5565b5050509392505050565b600082601f830112612a0957612a086127f9565b5b8135612a1984826020860161296d565b91505092915050565b600067ffffffffffffffff821115612a3d57612a3c6127fe565b5b602082029050919050565b6000612a5b612a5684612a22565b61285e565b90508060208402830185811115612a7557612a746128a5565b5b835b81811015612a9e5780612a8a888261277a565b845260208401935050602081019050612a77565b5050509392505050565b600082601f830112612abd57612abc6127f9565b5b6002612aca848285612a48565b91505092915050565b60008060608385031215612aea57612ae96126fb565b5b600083013567ffffffffffffffff811115612b0857612b07612700565b5b612b14858286016129f4565b9250506020612b2585828601612aa8565b9150509250929050565b60008115159050919050565b612b4481612b2f565b82525050565b6000602082019050612b5f6000830184612b3b565b92915050565b60008060608385031215612b7c57612b7b6126fb565b5b6000612b8a85828601612aa8565b925050604083013567ffffffffffffffff811115612bab57612baa612700565b5b612bb78582860161293f565b9150509250929050565b600060208284031215612bd757612bd66126fb565b5b6000612be58482850161277a565b91505092915050565b600080600060608486031215612c0757612c066126fb565b5b6000612c158682870161274e565b9350506020612c268682870161277a565b9250506040612c378682870161277a565b9150509250925092565b600082825260208201905092915050565b6000612c5d82612563565b612c678185612c41565b9350612c7781856020860161257f565b612c80816125b2565b840191505092915050565b6000604082019050612ca060008301856127cf565b8181036020830152612cb28184612c52565b90509392505050565b600080fd5b600067ffffffffffffffff821115612cdb57612cda6127fe565b5b612ce4826125b2565b9050602081019050919050565b82818337600083830152505050565b6000612d13612d0e84612cc0565b61285e565b905082815260208101848484011115612d2f57612d2e612cbb565b5b612d3a848285612cf1565b509392505050565b600082601f830112612d5757612d566127f9565b5b8135612d67848260208601612d00565b91505092915050565b600060208284031215612d8657612d856126fb565b5b600082013567ffffffffffffffff811115612da457612da3612700565b5b612db084828501612d42565b91505092915050565b612dc281612725565b82525050565b6000602082019050612ddd6000830184612db9565b92915050565b600080600080600060c08688031215612dff57612dfe6126fb565b5b600086013567ffffffffffffffff811115612e1d57612e1c612700565b5b612e298882890161293f565b955050602086013567ffffffffffffffff811115612e4a57612e49612700565b5b612e568882890161293f565b945050604086013567ffffffffffffffff811115612e7757612e76612700565b5b612e83888289016129f4565b935050606086013567ffffffffffffffff811115612ea457612ea3612700565b5b612eb08882890161293f565b9250506080612ec188828901612aa8565b9150509295509295909350565b600080fd5b600080fd5b600060408284031215612eee57612eed612ece565b5b612ef8604061285e565b9050600082013567ffffffffffffffff811115612f1857612f17612ed3565b5b612f248482850161293f565b6000830152506020612f388482850161277a565b60208301525092915050565b600080600060608486031215612f5d57612f5c6126fb565b5b600084013567ffffffffffffffff811115612f7b57612f7a612700565b5b612f878682870161293f565b935050602084013567ffffffffffffffff811115612fa857612fa7612700565b5b612fb48682870161293f565b925050604084013567ffffffffffffffff811115612fd557612fd4612700565b5b612fe186828701612ed8565b9150509250925092565b600060208284031215613001576130006126fb565b5b600061300f8482850161274e565b91505092915050565b7f4e487b7100000000000000000000000000000000000000000000000000000000600052602260045260246000fd5b6000600282049050600182168061305f57607f821691505b60208210810361307257613071613018565b5b50919050565b7f4e487b7100000000000000000000000000000000000000000000000000000000600052601160045260246000fd5b60006130b28261254a565b91506130bd8361254a565b9250828210156130d0576130cf613078565b5b828203905092915050565b7f4e487b7100000000000000000000000000000000000000000000000000000000600052603260045260246000fd5b60006131158261254a565b91507fffffffffffffffffffffffffffffffffffffffffffffffffffffffffffffffff820361314757613146613078565b5b600182019050919050565b7f4f6e6c792061646d696e2063616e20706572666f726d2074686973206163746960008201527f6f6e000000000000000000000000000000000000000000000000000000000000602082015250565b60006131ae602283612c41565b91506131b982613152565b604082019050919050565b600060208201905081810360008301526131dd816131a1565b9050919050565b7f566f7465727320726567697374726174696f6e20706861736520656e64656400600082015250565b600061321a601f83612c41565b9150613225826131e4565b602082019050919050565b600060208201905081810360008301526132498161320d565b9050919050565b600061325b8261254a565b91506132668361254a565b9250817fffffffffffffffffffffffffffffffffffffffffffffffffffffffffffffffff048311821515161561329f5761329e613078565b5b828202905092915050565b60006132b58261254a565b91506132c08361254a565b9250827fffffffffffffffffffffffffffffffffffffffffffffffffffffffffffffffff038211156132f5576132f4613078565b5b828201905092915050565b600060029050919050565b600081905092915050565b6000819050919050565b600061332c8383612554565b60208301905092915050565b60008160001c9050919050565b6000819050919050565b600061336261335d83613338565b613345565b9050919050565b6000613375825461334f565b9050919050565b6000600182019050919050565b61339281613300565b61339c818461330b565b92506133a782613316565b8060005b838110156133df576133bc82613369565b6133c68782613320565b96506133d18361337c565b9250506001810190506133ab565b505050505050565b60006060820190506133fc60008301856127cf565b6134096020830184613389565b9392505050565b60008151905061341f81612763565b92915050565b600061343861343384612a22565b61285e565b90508060208402830185811115613452576134516128a5565b5b835b8181101561347b57806134678882613410565b845260208401935050602081019050613454565b5050509392505050565b600082601f83011261349a576134996127f9565b5b60026134a7848285613425565b91505092915050565b6000604082840312156134c6576134c56126fb565b5b60006134d484828501613485565b91505092915050565b600060029050919050565b6000819050919050565b6000602082019050919050565b613508816134dd565b613512818461330b565b925061351d826134e8565b8060005b8381101561354e5781516135358782613320565b9650613540836134f2565b925050600181019050613521565b505050505050565b600060808201905061356b60008301856134ff565b61357860408301846134ff565b9392505050565b61358881612b2f565b811461359357600080fd5b50565b6000815190506135a58161357f565b92915050565b6000602082840312156135c1576135c06126fb565b5b60006135cf84828501613596565b91505092915050565b7f43616e64696461746520726567697374726174696f6e20706861736520656e6460008201527f6564000000000000000000000000000000000000000000000000000000000000602082015250565b6000613634602283612c41565b915061363f826135d8565b604082019050919050565b6000602082019050818103600083015261366381613627565b9050919050565b7f566f746520706861736520656e64656400000000000000000000000000000000600082015250565b60006136a0601083612c41565b91506136ab8261366a565b602082019050919050565b600060208201905081810360008301526136cf81613693565b9050919050565b60006060820190506136eb60008301856127cf565b6136f860208301846134ff565b9392505050565b600060408201905061371460008301846134ff565b9291505056fea26469706673582212204a900c63fc03d802877b370751f7f13bb4819c8abcbd5cb08d56d5d6cb3b83f564736f6c634300080d0033",
  "immutableReferences": {},
  "source": "// SPDX-License-Identifier: UNLICENSED\npragma solidity ^0.8.0;\nimport './Crypto.sol';\n\ncontract ScoreVoting {\n    struct Candidate {\n        uint id;\n        string name;\n    }\n\n//    struct PublicKeys {\n//        uint pubKey;\n//        uint[] pubKeysForCandidates;\n//    }\n\n    struct CommitmentProof {\n        uint[][] p1;\n        uint[] p2;\n    }\n\n    struct BallotProof {\n        uint[] p3;\n        uint p4;\n    }\n\n    struct Commitment {\n        uint[] xi;\n        uint[] nu;\n    }\n\n    struct Ballot {\n        uint[] beta;\n        uint[] gamma;\n    }\n\n    struct ZKPoK1_Proof {\n        uint[2] xi;\n        uint[2] nu;\n        uint c;\n        uint[2] Y;\n        uint X;\n        uint[] other;\n    }\n\n    struct Point {\n        uint[2] data;\n    }\n\n    address public admin;\n    Crypto crypto;\n    uint minScore;\n    uint maxScore;\n    mapping (address => uint[2]) public publicKeys; // key\n    mapping (address => uint[]) public publicKeysForCandidates; // key\n    mapping (uint => Candidate) public candidates;\n    mapping (uint => uint) public eachCandidateKeys; //???\n    mapping (address => uint[]) public commitmentsXi;\n    mapping (address => uint[]) public commitmentsNu;\n    mapping (address => uint[][]) public commitmentsProofs1; // dual zkp\n    mapping (address => uint[]) public commitmentsProofs2; // dual zkp\n    mapping (address => uint[]) public ballotsBeta;\n    mapping (address => uint[]) public ballotsGamma;\n    mapping (address => BallotProof) public ballotsProofs;\n    address[] public voters;\n\n    uint public totalScore;\n    uint public candidateCount; // need??\n\n    event VoteSubmitted(address voter, uint candidateId, bool vote);\n    event VotersRegistrationStarted();\n    event VotingStarted();\n    event VotingEnded();\n\n\n    // 0 - candidates registration\n    // 1 - voters registration\n    // 2 - commit phase\n    // 3 - vote phase\n    // 4 - vote ended\n    uint public votingState;\n\n    constructor(address _cryptoAddress) {\n        admin = msg.sender;\n        totalScore = 10;\n        minScore = 0;\n        maxScore = 5;\n        crypto = Crypto(_cryptoAddress);\n    }\n\n    modifier onlyAdmin() {\n        require(msg.sender == admin, \"Only admin can perform this action\");\n        _;\n    }\n\n\n    modifier candidateRegistrationPhase() {\n        require(votingState == 0, \"Candidate registration phase ended\");\n        _;\n    }\n\n    modifier votersRegistrationPhase() {\n        require(votingState == 1, \"Voters registration phase ended\");\n        _;\n    }\n\n    modifier commitPhase() {\n        require(votingState == 2, \"Commit phase ended\");\n        _;\n    }\n\n    modifier votePhase() {\n        require(votingState == 3, \"Vote phase ended\");\n        _;\n    }\n\n    modifier voteEnded() {\n        require(votingState == 4, \"Vote ended\");\n        _;\n    }\n\n    function getVotingStatus() public view returns (uint) {\n        return votingState;\n    }\n\n    function addCandidate(\n        string memory _name\n    ) public onlyAdmin candidateRegistrationPhase {\n        candidateCount++;\n        candidates[candidateCount] = Candidate(candidateCount, _name);//, 0, 0);\n    }\n\n    function getCandidates() public view returns (Candidate[] memory) {\n        Candidate[] memory _candidates = new Candidate[](candidateCount);\n        for (uint i = 1; i <= candidateCount; i++) {\n            _candidates[i - 1] = candidates[i];\n        }\n        return _candidates;\n    }\n\n    function startVotersRegistration() public onlyAdmin candidateRegistrationPhase {\n        votingState = 1;\n        emit VotersRegistrationStarted();\n    }\n\n    function startVoting() public onlyAdmin votersRegistrationPhase {\n        votingState = 3;\n        emit VotingStarted();\n    }\n\n    function endVoting() public onlyAdmin votePhase {\n        votingState = 4;\n        emit VotingEnded();\n    }\n\n    function registerVoter(uint[2] memory _pubKey, uint[] memory _pubKeyForCandidates) public { // payable??\n        require(_pubKeyForCandidates.length == 2 * candidateCount); // 2 because each pub key is point\n        voters.push(msg.sender);\n        publicKeys[msg.sender] = _pubKey;\n        publicKeysForCandidates[msg.sender] = _pubKeyForCandidates;\n    }\n\n    function commitVote(uint[] memory commitmentXi, uint[] memory commitmentNu, uint[][] memory proof1, uint[] memory proof2, uint[2] memory W_i) public {\n        require(commitmentXi.length == candidateCount);\n        require(commitmentNu.length == candidateCount);\n        require(proof1.length == candidateCount);\n        require(checkZKPoK1(proof1, W_i));\n        commitmentsXi[msg.sender] = commitmentXi;\n        commitmentsNu[msg.sender] = commitmentNu;\n        commitmentsProofs1[msg.sender] = proof1;\n        commitmentsProofs2[msg.sender] = proof2;\n    }\n\n    function checkZKPoK1(uint[][] memory proof, uint[2] memory W_i) public view returns (bool) {\n        ZKPoK1_Proof memory p;\n        bool result = true;\n        for (uint i = 0; i < candidateCount; i++) {\n            uint d_sum = 0;\n            p.xi = [proof[i][0], proof[i][1]];\n            p.nu = [proof[i][2], proof[i][3]];\n            p.c = proof[i][4];\n            p.X = proof[i][5];\n            p.Y = [proof[i][6], proof[i][7]];\n            for (uint j = minScore; j <= maxScore; i++) {\n                d_sum = d_sum + proof[i][12 + (j - minScore) * 6];\n                result = result && ZKPoK1_Inners(proof[i], j, W_i);\n            }\n            result = result && (p.c == d_sum); // c = sum d\n            result = result && (crypto.Equal(\n                p.Y,\n                crypto.ecAdd(\n                    crypto.ecMul(p.c, publicKeys[msg.sender]),\n                    crypto.ecMul(p.X)\n                )\n            )); // Y = pubKey^c * g^X\n        }\n        return result;\n    }\n\n    function ZKPoK1_Inners(uint[] memory proof, uint j, uint[2] memory W_i) private view returns (bool) {\n        bool result = true;\n        Point memory a;\n        a.data = [proof[8 + (j - minScore) * 6], proof[9 + (j - minScore) * 6]];\n        Point memory b;\n        b.data = [proof[10 + (j - minScore) * 6], proof[11 + (j - minScore) * 6]];\n        Point memory xi;\n        xi.data =[proof[0], proof[1]];\n        Point memory nu;\n        nu.data = [proof[2], proof[3]];\n        uint d = proof[12 + (j - minScore) * 6];\n        uint e = proof[13 + (j - minScore) * 6];\n        result = result && ZKPoK11(xi, a.data, d, e); // a == g^e xi^d\n        result = result && ZKPoK12(nu, W_i, b.data, d, e, j); // check that b equals W_i^e * (nu/g^j)^d\n        return result;\n    }\n\n    function ZKPoK11(Point memory xi, uint[2] memory a, uint d, uint e) private view returns (bool) {\n        return crypto.Equal(\n            crypto.ecAdd(crypto.ecMul(e), crypto.ecMul(d, xi.data)),\n            a\n        );\n    }\n\n    function ZKPoK12(Point memory nu, uint[2] memory W_i, uint[2] memory b, uint e, uint d, uint j) private view returns (bool) {\n        uint[2] memory div = crypto.ecAdd(nu.data, crypto.ecNeg(crypto.ecMul(j)));\n        return crypto.Equal(\n            crypto.ecAdd(\n                crypto.ecMul(e, W_i),\n                crypto.ecMul(d, div)),\n            b\n        );\n    }\n\n    function vote(uint[] memory ballotBeta, uint[] memory ballotGamma, BallotProof memory proof) public {\n        require(ballotBeta.length == candidateCount);\n        require(ballotGamma.length == candidateCount);\n        require(proof.p3.length == candidateCount);\n        ballotsBeta[msg.sender] = ballotBeta;\n        ballotsGamma[msg.sender] = ballotGamma;\n        ballotsProofs[msg.sender] = proof;\n\n    }\n\n    function selfTallying() public onlyAdmin {\n        require(msg.sender == admin);\n//        uint [candidateCount] result; // here we get results\n//        return result;\n    }\n}\n",
  "sourcePath": "/Users/stanislav.kosorin/uni/btda-self-tallying-election/contracts/ScoreVoting.sol",
  "compiler": {
    "name": "solc",
    "version": "0.8.13+commit.abaa5c0e.Emscripten.clang"
  },
  "schemaVersion": "3.4.16",
  "updatedAt": "2024-07-13T08:25:51.276Z",
  "networkType": "ethereum",
  "devdoc": {
    "kind": "dev",
    "methods": {},
    "version": 1
  },
  "userdoc": {
    "kind": "user",
    "methods": {},
    "version": 1
  }
}