{
  "contractName": "YesNoVoting",
  "abi": [
    {
      "inputs": [],
      "stateMutability": "nonpayable",
      "type": "constructor"
    },
    {
      "anonymous": false,
      "inputs": [
        {
          "indexed": false,
          "internalType": "address",
          "name": "voter",
          "type": "address"
        },
        {
          "indexed": false,
          "internalType": "uint256",
          "name": "candidateId",
          "type": "uint256"
        },
        {
          "indexed": false,
          "internalType": "bool",
          "name": "vote",
          "type": "bool"
        }
      ],
      "name": "VoteSubmitted",
      "type": "event"
    },
    {
      "anonymous": false,
      "inputs": [],
      "name": "VotingEnded",
      "type": "event"
    },
    {
      "anonymous": false,
      "inputs": [],
      "name": "VotingStarted",
      "type": "event"
    },
    {
      "inputs": [],
      "name": "admin",
      "outputs": [
        {
          "internalType": "address",
          "name": "",
          "type": "address"
        }
      ],
      "stateMutability": "view",
      "type": "function",
      "constant": true
    },
    {
      "inputs": [],
      "name": "candidateCount",
      "outputs": [
        {
          "internalType": "uint256",
          "name": "",
          "type": "uint256"
        }
      ],
      "stateMutability": "view",
      "type": "function",
      "constant": true
    },
    {
      "inputs": [
        {
          "internalType": "uint256",
          "name": "",
          "type": "uint256"
        }
      ],
      "name": "candidates",
      "outputs": [
        {
          "internalType": "uint256",
          "name": "id",
          "type": "uint256"
        },
        {
          "internalType": "string",
          "name": "name",
          "type": "string"
        },
        {
          "internalType": "uint256",
          "name": "yesVotes",
          "type": "uint256"
        },
        {
          "internalType": "uint256",
          "name": "noVotes",
          "type": "uint256"
        }
      ],
      "stateMutability": "view",
      "type": "function",
      "constant": true
    },
    {
      "inputs": [
        {
          "internalType": "address",
          "name": "",
          "type": "address"
        }
      ],
      "name": "voters",
      "outputs": [
        {
          "internalType": "bool",
          "name": "hasVoted",
          "type": "bool"
        },
        {
          "internalType": "bool",
          "name": "vote",
          "type": "bool"
        }
      ],
      "stateMutability": "view",
      "type": "function",
      "constant": true
    },
    {
      "inputs": [],
      "name": "votingOpen",
      "outputs": [
        {
          "internalType": "bool",
          "name": "",
          "type": "bool"
        }
      ],
      "stateMutability": "view",
      "type": "function",
      "constant": true
    },
    {
      "inputs": [
        {
          "internalType": "string",
          "name": "_name",
          "type": "string"
        }
      ],
      "name": "addCandidate",
      "outputs": [],
      "stateMutability": "nonpayable",
      "type": "function"
    },
    {
      "inputs": [],
      "name": "getCandidates",
      "outputs": [
        {
          "components": [
            {
              "internalType": "uint256",
              "name": "id",
              "type": "uint256"
            },
            {
              "internalType": "string",
              "name": "name",
              "type": "string"
            },
            {
              "internalType": "uint256",
              "name": "yesVotes",
              "type": "uint256"
            },
            {
              "internalType": "uint256",
              "name": "noVotes",
              "type": "uint256"
            }
          ],
          "internalType": "struct YesNoVoting.Candidate[]",
          "name": "",
          "type": "tuple[]"
        }
      ],
      "stateMutability": "view",
      "type": "function",
      "constant": true
    },
    {
      "inputs": [
        {
          "internalType": "uint256",
          "name": "_candidateId",
          "type": "uint256"
        },
        {
          "internalType": "bool",
          "name": "_vote",
          "type": "bool"
        }
      ],
      "name": "vote",
      "outputs": [],
      "stateMutability": "nonpayable",
      "type": "function"
    },
    {
      "inputs": [],
      "name": "startVoting",
      "outputs": [],
      "stateMutability": "nonpayable",
      "type": "function"
    },
    {
      "inputs": [],
      "name": "endVoting",
      "outputs": [],
      "stateMutability": "nonpayable",
      "type": "function"
    },
    {
      "inputs": [
        {
          "internalType": "uint256",
          "name": "_candidateId",
          "type": "uint256"
        }
      ],
      "name": "getCandidateVotes",
      "outputs": [
        {
          "internalType": "uint256",
          "name": "yesVotes",
          "type": "uint256"
        },
        {
          "internalType": "uint256",
          "name": "noVotes",
          "type": "uint256"
        }
      ],
      "stateMutability": "view",
      "type": "function",
      "constant": true
    }
  ],
  "bytecode": "0x608060405234801561001057600080fd5b50336000806101000a81548173ffffffffffffffffffffffffffffffffffffffff021916908373ffffffffffffffffffffffffffffffffffffffff160217905550600060038190555061168a806100686000396000f3fe608060405234801561001057600080fd5b50600436106100a95760003560e01c8063a3ec138d11610071578063a3ec138d14610156578063a95824b414610187578063a9a981a3146101a5578063c3403ddf146101c3578063c9d27afe146101cd578063f851a440146101e9576100a9565b806306a49fce146100ae5780631ec6b60a146100cc5780633477ee2e146100d6578063462e91ec14610109578063866163c014610125575b600080fd5b6100b6610207565b6040516100c39190610e2b565b60405180910390f35b6100d4610386565b005b6100f060048036038101906100eb9190610e8d565b6104ad565b6040516101009493929190610f13565b60405180910390f35b610123600480360381019061011e9190611094565b610565565b005b61013f600480360381019061013a9190610e8d565b6106d6565b60405161014d9291906110dd565b60405180910390f35b610170600480360381019061016b9190611164565b610761565b60405161017e9291906111ac565b60405180910390f35b61018f61079f565b60405161019c91906111d5565b60405180910390f35b6101ad6107b2565b6040516101ba91906111f0565b60405180910390f35b6101cb6107b8565b005b6101e760048036038101906101e29190611237565b6108de565b005b6101f1610b65565b6040516101fe9190611286565b60405180910390f35b6060600060035467ffffffffffffffff81111561022757610226610f69565b5b60405190808252806020026020018201604052801561026057816020015b61024d610b89565b8152602001906001900390816102455790505b5090506000600190505b600354811161037e5760026000828152602001908152602001600020604051806080016040529081600082015481526020016001820180546102ab906112d0565b80601f01602080910402602001604051908101604052809291908181526020018280546102d7906112d0565b80156103245780601f106102f957610100808354040283529160200191610324565b820191906000526020600020905b81548152906001019060200180831161030757829003601f168201915b50505050508152602001600282015481526020016003820154815250508260018361034f9190611330565b815181106103605761035f611364565b5b6020026020010181905250808061037690611393565b91505061026a565b508091505090565b60008054906101000a900473ffffffffffffffffffffffffffffffffffffffff1673ffffffffffffffffffffffffffffffffffffffff163373ffffffffffffffffffffffffffffffffffffffff1614610414576040517f08c379a000000000000000000000000000000000000000000000000000000000815260040161040b9061144d565b60405180910390fd5b600460009054906101000a900460ff1615610464576040517f08c379a000000000000000000000000000000000000000000000000000000000815260040161045b906114b9565b60405180910390fd5b6001600460006101000a81548160ff0219169083151502179055507f877e2548498f42b7975a186b94ef1d32c86d420b7b806dd2be2bea293b89590460405160405180910390a1565b60026020528060005260406000206000915090508060000154908060010180546104d6906112d0565b80601f0160208091040260200160405190810160405280929190818152602001828054610502906112d0565b801561054f5780601f106105245761010080835404028352916020019161054f565b820191906000526020600020905b81548152906001019060200180831161053257829003601f168201915b5050505050908060020154908060030154905084565b60008054906101000a900473ffffffffffffffffffffffffffffffffffffffff1673ffffffffffffffffffffffffffffffffffffffff163373ffffffffffffffffffffffffffffffffffffffff16146105f3576040517f08c379a00000000000000000000000000000000000000000000000000000000081526004016105ea9061144d565b60405180910390fd5b600460009054906101000a900460ff1615610643576040517f08c379a000000000000000000000000000000000000000000000000000000000815260040161063a906114b9565b60405180910390fd5b6003600081548092919061065690611393565b9190505550604051806080016040528060035481526020018281526020016000815260200160008152506002600060035481526020019081526020016000206000820151816000015560208201518160010190805190602001906106bb929190610bb1565b50604082015181600201556060820151816003015590505050565b6000806000831180156106eb57506003548311155b61072a576040517f08c379a000000000000000000000000000000000000000000000000000000000815260040161072190611525565b60405180910390fd5b6002600084815260200190815260200160002060020154600260008581526020019081526020016000206003015491509150915091565b60016020528060005260406000206000915090508060000160009054906101000a900460ff16908060000160019054906101000a900460ff16905082565b600460009054906101000a900460ff1681565b60035481565b60008054906101000a900473ffffffffffffffffffffffffffffffffffffffff1673ffffffffffffffffffffffffffffffffffffffff163373ffffffffffffffffffffffffffffffffffffffff1614610846576040517f08c379a000000000000000000000000000000000000000000000000000000000815260040161083d9061144d565b60405180910390fd5b600460009054906101000a900460ff16610895576040517f08c379a000000000000000000000000000000000000000000000000000000000815260040161088c90611591565b60405180910390fd5b6000600460006101000a81548160ff0219169083151502179055507f7a19ed057db79e3c2fa0b97a54b43bef4fce74b31bb6c01af514b9a18a7f70ab60405160405180910390a1565b600460009054906101000a900460ff1661092d576040517f08c379a000000000000000000000000000000000000000000000000000000000815260040161092490611591565b60405180910390fd5b600160003373ffffffffffffffffffffffffffffffffffffffff1673ffffffffffffffffffffffffffffffffffffffff16815260200190815260200160002060000160009054906101000a900460ff16156109bd576040517f08c379a00000000000000000000000000000000000000000000000000000000081526004016109b4906115fd565b60405180910390fd5b6000821180156109cf57506003548211155b610a0e576040517f08c379a0000000000000000000000000000000000000000000000000000000008152600401610a0590611525565b60405180910390fd5b60018060003373ffffffffffffffffffffffffffffffffffffffff1673ffffffffffffffffffffffffffffffffffffffff16815260200190815260200160002060000160006101000a81548160ff02191690831515021790555080600160003373ffffffffffffffffffffffffffffffffffffffff1673ffffffffffffffffffffffffffffffffffffffff16815260200190815260200160002060000160016101000a81548160ff0219169083151502179055508015610af957600260008381526020019081526020016000206002016000815480929190610aef90611393565b9190505550610b26565b600260008381526020019081526020016000206003016000815480929190610b2090611393565b91905055505b7facaeaa5073ce434a8569b11d2949143f045ff49b3153b3bb6c6cae525a5e1799338383604051610b599392919061161d565b60405180910390a15050565b60008054906101000a900473ffffffffffffffffffffffffffffffffffffffff1681565b6040518060800160405280600081526020016060815260200160008152602001600081525090565b828054610bbd906112d0565b90600052602060002090601f016020900481019282610bdf5760008555610c26565b82601f10610bf857805160ff1916838001178555610c26565b82800160010185558215610c26579182015b82811115610c25578251825591602001919060010190610c0a565b5b509050610c339190610c37565b5090565b5b80821115610c50576000816000905550600101610c38565b5090565b600081519050919050565b600082825260208201905092915050565b6000819050602082019050919050565b6000819050919050565b610c9381610c80565b82525050565b600081519050919050565b600082825260208201905092915050565b60005b83811015610cd3578082015181840152602081019050610cb8565b83811115610ce2576000848401525b50505050565b6000601f19601f8301169050919050565b6000610d0482610c99565b610d0e8185610ca4565b9350610d1e818560208601610cb5565b610d2781610ce8565b840191505092915050565b6000608083016000830151610d4a6000860182610c8a565b5060208301518482036020860152610d628282610cf9565b9150506040830151610d776040860182610c8a565b506060830151610d8a6060860182610c8a565b508091505092915050565b6000610da18383610d32565b905092915050565b6000602082019050919050565b6000610dc182610c54565b610dcb8185610c5f565b935083602082028501610ddd85610c70565b8060005b85811015610e195784840389528151610dfa8582610d95565b9450610e0583610da9565b925060208a01995050600181019050610de1565b50829750879550505050505092915050565b60006020820190508181036000830152610e458184610db6565b905092915050565b6000604051905090565b600080fd5b600080fd5b610e6a81610c80565b8114610e7557600080fd5b50565b600081359050610e8781610e61565b92915050565b600060208284031215610ea357610ea2610e57565b5b6000610eb184828501610e78565b91505092915050565b610ec381610c80565b82525050565b600082825260208201905092915050565b6000610ee582610c99565b610eef8185610ec9565b9350610eff818560208601610cb5565b610f0881610ce8565b840191505092915050565b6000608082019050610f286000830187610eba565b8181036020830152610f3a8186610eda565b9050610f496040830185610eba565b610f566060830184610eba565b95945050505050565b600080fd5b600080fd5b7f4e487b7100000000000000000000000000000000000000000000000000000000600052604160045260246000fd5b610fa182610ce8565b810181811067ffffffffffffffff82111715610fc057610fbf610f69565b5b80604052505050565b6000610fd3610e4d565b9050610fdf8282610f98565b919050565b600067ffffffffffffffff821115610fff57610ffe610f69565b5b61100882610ce8565b9050602081019050919050565b82818337600083830152505050565b600061103761103284610fe4565b610fc9565b90508281526020810184848401111561105357611052610f64565b5b61105e848285611015565b509392505050565b600082601f83011261107b5761107a610f5f565b5b813561108b848260208601611024565b91505092915050565b6000602082840312156110aa576110a9610e57565b5b600082013567ffffffffffffffff8111156110c8576110c7610e5c565b5b6110d484828501611066565b91505092915050565b60006040820190506110f26000830185610eba565b6110ff6020830184610eba565b9392505050565b600073ffffffffffffffffffffffffffffffffffffffff82169050919050565b600061113182611106565b9050919050565b61114181611126565b811461114c57600080fd5b50565b60008135905061115e81611138565b92915050565b60006020828403121561117a57611179610e57565b5b60006111888482850161114f565b91505092915050565b60008115159050919050565b6111a681611191565b82525050565b60006040820190506111c1600083018561119d565b6111ce602083018461119d565b9392505050565b60006020820190506111ea600083018461119d565b92915050565b60006020820190506112056000830184610eba565b92915050565b61121481611191565b811461121f57600080fd5b50565b6000813590506112318161120b565b92915050565b6000806040838503121561124e5761124d610e57565b5b600061125c85828601610e78565b925050602061126d85828601611222565b9150509250929050565b61128081611126565b82525050565b600060208201905061129b6000830184611277565b92915050565b7f4e487b7100000000000000000000000000000000000000000000000000000000600052602260045260246000fd5b600060028204905060018216806112e857607f821691505b6020821081036112fb576112fa6112a1565b5b50919050565b7f4e487b7100000000000000000000000000000000000000000000000000000000600052601160045260246000fd5b600061133b82610c80565b915061134683610c80565b92508282101561135957611358611301565b5b828203905092915050565b7f4e487b7100000000000000000000000000000000000000000000000000000000600052603260045260246000fd5b600061139e82610c80565b91507fffffffffffffffffffffffffffffffffffffffffffffffffffffffffffffffff82036113d0576113cf611301565b5b600182019050919050565b7f4f6e6c792061646d696e2063616e20706572666f726d2074686973206163746960008201527f6f6e000000000000000000000000000000000000000000000000000000000000602082015250565b6000611437602283610ec9565b9150611442826113db565b604082019050919050565b600060208201905081810360008301526114668161142a565b9050919050565b7f566f74696e67206973206f70656e000000000000000000000000000000000000600082015250565b60006114a3600e83610ec9565b91506114ae8261146d565b602082019050919050565b600060208201905081810360008301526114d281611496565b9050919050565b7f496e76616c69642063616e646964617465000000000000000000000000000000600082015250565b600061150f601183610ec9565b915061151a826114d9565b602082019050919050565b6000602082019050818103600083015261153e81611502565b9050919050565b7f566f74696e67206973206e6f74206f70656e0000000000000000000000000000600082015250565b600061157b601283610ec9565b915061158682611545565b602082019050919050565b600060208201905081810360008301526115aa8161156e565b9050919050565b7f416c726561647920766f74656400000000000000000000000000000000000000600082015250565b60006115e7600d83610ec9565b91506115f2826115b1565b602082019050919050565b60006020820190508181036000830152611616816115da565b9050919050565b60006060820190506116326000830186611277565b61163f6020830185610eba565b61164c604083018461119d565b94935050505056fea26469706673582212207a7835f17a849be0b5bde7d769e709da356bb539f44a800f0632be3ab38bfe8564736f6c634300080d0033",
  "immutableReferences": {},
  "source": "// SPDX-License-Identifier: MIT\npragma solidity >=0.4.22 <0.9.0;\n\ncontract YesNoVoting {\n    struct Candidate {\n        uint id;\n        string name;\n        uint yesVotes;\n        uint noVotes;\n    }\n\n    struct Voter {\n        bool hasVoted;\n        bool vote;\n    }\n\n    address public admin;\n    mapping(address => Voter) public voters;\n    mapping(uint => Candidate) public candidates;\n    uint public candidateCount;\n    bool public votingOpen;\n\n    event VoteSubmitted(address voter, uint candidateId, bool vote);\n    event VotingStarted();\n    event VotingEnded();\n\n    modifier onlyAdmin() {\n        require(msg.sender == admin, \"Only admin can perform this action\");\n        _;\n    }\n\n    modifier votingIsOpen() {\n        require(votingOpen, \"Voting is not open\");\n        _;\n    }\n\n    modifier votingIsNotOpen() {\n        require(!votingOpen, \"Voting is open\");\n        _;\n    }\n\n    constructor() {\n        admin = msg.sender;\n        candidateCount = 0;\n    }\n\n    function addCandidate(\n        string memory _name\n    ) public onlyAdmin votingIsNotOpen {\n        candidateCount++;\n        candidates[candidateCount] = Candidate(candidateCount, _name, 0, 0);\n    }\n\n    function getCandidates() public view returns (Candidate[] memory) {\n        Candidate[] memory _candidates = new Candidate[](candidateCount);\n        for (uint i = 1; i <= candidateCount; i++) {\n            _candidates[i - 1] = candidates[i];\n        }\n        return _candidates;\n    }\n\n    function vote(uint _candidateId, bool _vote) public votingIsOpen {\n        require(!voters[msg.sender].hasVoted, \"Already voted\");\n        require(\n            _candidateId > 0 && _candidateId <= candidateCount,\n            \"Invalid candidate\"\n        );\n\n        voters[msg.sender].hasVoted = true;\n        voters[msg.sender].vote = _vote;\n\n        if (_vote) {\n            candidates[_candidateId].yesVotes++;\n        } else {\n            candidates[_candidateId].noVotes++;\n        }\n\n        emit VoteSubmitted(msg.sender, _candidateId, _vote);\n    }\n\n    function startVoting() public onlyAdmin votingIsNotOpen {\n        votingOpen = true;\n        emit VotingStarted();\n    }\n\n    function endVoting() public onlyAdmin votingIsOpen {\n        votingOpen = false;\n        emit VotingEnded();\n    }\n\n    function getCandidateVotes(\n        uint _candidateId\n    ) public view returns (uint yesVotes, uint noVotes) {\n        require(\n            _candidateId > 0 && _candidateId <= candidateCount,\n            \"Invalid candidate\"\n        );\n        return (\n            candidates[_candidateId].yesVotes,\n            candidates[_candidateId].noVotes\n        );\n    }\n}\n",
  "sourcePath": "/home/stanley/btda-self-tallying-election/contracts/YesNoVoting.sol",
  "compiler": {
    "name": "solc",
    "version": "0.8.13+commit.abaa5c0e.Emscripten.clang"
  },
  "schemaVersion": "3.4.16",
  "updatedAt": "2024-07-03T11:02:21.942Z",
  "networkType": "ethereum",
  "devdoc": {
    "kind": "dev",
    "methods": {},
    "version": 1
  },
  "userdoc": {
    "kind": "user",
    "methods": {},
    "version": 1
  }
}