{
  "contractName": "YesNoVoting",
  "abi": [
    {
      "inputs": [],
      "stateMutability": "nonpayable",
      "type": "constructor"
    },
    {
      "anonymous": false,
      "inputs": [
        {
          "indexed": false,
          "internalType": "address",
          "name": "voter",
          "type": "address"
        },
        {
          "indexed": false,
          "internalType": "uint256",
          "name": "candidateId",
          "type": "uint256"
        },
        {
          "indexed": false,
          "internalType": "bool",
          "name": "vote",
          "type": "bool"
        }
      ],
      "name": "VoteSubmitted",
      "type": "event"
    },
    {
      "anonymous": false,
      "inputs": [],
      "name": "VotingEnded",
      "type": "event"
    },
    {
      "inputs": [],
      "name": "admin",
      "outputs": [
        {
          "internalType": "address",
          "name": "",
          "type": "address"
        }
      ],
      "stateMutability": "view",
      "type": "function",
      "constant": true
    },
    {
      "inputs": [],
      "name": "candidateCount",
      "outputs": [
        {
          "internalType": "uint256",
          "name": "",
          "type": "uint256"
        }
      ],
      "stateMutability": "view",
      "type": "function",
      "constant": true
    },
    {
      "inputs": [
        {
          "internalType": "uint256",
          "name": "",
          "type": "uint256"
        }
      ],
      "name": "candidates",
      "outputs": [
        {
          "internalType": "uint256",
          "name": "id",
          "type": "uint256"
        },
        {
          "internalType": "string",
          "name": "name",
          "type": "string"
        },
        {
          "internalType": "uint256",
          "name": "yesVotes",
          "type": "uint256"
        },
        {
          "internalType": "uint256",
          "name": "noVotes",
          "type": "uint256"
        }
      ],
      "stateMutability": "view",
      "type": "function",
      "constant": true
    },
    {
      "inputs": [
        {
          "internalType": "address",
          "name": "",
          "type": "address"
        }
      ],
      "name": "voters",
      "outputs": [
        {
          "internalType": "bool",
          "name": "hasVoted",
          "type": "bool"
        },
        {
          "internalType": "bool",
          "name": "vote",
          "type": "bool"
        }
      ],
      "stateMutability": "view",
      "type": "function",
      "constant": true
    },
    {
      "inputs": [],
      "name": "votingOpen",
      "outputs": [
        {
          "internalType": "bool",
          "name": "",
          "type": "bool"
        }
      ],
      "stateMutability": "view",
      "type": "function",
      "constant": true
    },
    {
      "inputs": [
        {
          "internalType": "string",
          "name": "_name",
          "type": "string"
        }
      ],
      "name": "addCandidate",
      "outputs": [],
      "stateMutability": "nonpayable",
      "type": "function"
    },
    {
      "inputs": [
        {
          "internalType": "uint256",
          "name": "_candidateId",
          "type": "uint256"
        },
        {
          "internalType": "bool",
          "name": "_vote",
          "type": "bool"
        }
      ],
      "name": "vote",
      "outputs": [],
      "stateMutability": "nonpayable",
      "type": "function"
    },
    {
      "inputs": [],
      "name": "endVoting",
      "outputs": [],
      "stateMutability": "nonpayable",
      "type": "function"
    },
    {
      "inputs": [
        {
          "internalType": "uint256",
          "name": "_candidateId",
          "type": "uint256"
        }
      ],
      "name": "getCandidateVotes",
      "outputs": [
        {
          "internalType": "uint256",
          "name": "yesVotes",
          "type": "uint256"
        },
        {
          "internalType": "uint256",
          "name": "noVotes",
          "type": "uint256"
        }
      ],
      "stateMutability": "view",
      "type": "function",
      "constant": true
    }
  ],
  "bytecode": "0x608060405234801561001057600080fd5b50336000806101000a81548173ffffffffffffffffffffffffffffffffffffffff021916908373ffffffffffffffffffffffffffffffffffffffff1602179055506001600460006101000a81548160ff0219169083151502179055506000600381905550611070806100836000396000f3fe608060405234801561001057600080fd5b50600436106100935760003560e01c8063a95824b411610066578063a95824b414610149578063a9a981a314610167578063c3403ddf14610185578063c9d27afe1461018f578063f851a440146101ab57610093565b80633477ee2e14610098578063462e91ec146100cb578063866163c0146100e7578063a3ec138d14610118575b600080fd5b6100b260048036038101906100ad91906108f3565b6101c9565b6040516100c294939291906109c8565b60405180910390f35b6100e560048036038101906100e09190610b49565b610281565b005b61010160048036038101906100fc91906108f3565b6103a2565b60405161010f929190610b92565b60405180910390f35b610132600480360381019061012d9190610c19565b61042d565b604051610140929190610c61565b60405180910390f35b61015161046b565b60405161015e9190610c8a565b60405180910390f35b61016f61047e565b60405161017c9190610ca5565b60405180910390f35b61018d610484565b005b6101a960048036038101906101a49190610cec565b61055b565b005b6101b36107e2565b6040516101c09190610d3b565b60405180910390f35b60026020528060005260406000206000915090508060000154908060010180546101f290610d85565b80601f016020809104026020016040519081016040528092919081815260200182805461021e90610d85565b801561026b5780601f106102405761010080835404028352916020019161026b565b820191906000526020600020905b81548152906001019060200180831161024e57829003601f168201915b5050505050908060020154908060030154905084565b60008054906101000a900473ffffffffffffffffffffffffffffffffffffffff1673ffffffffffffffffffffffffffffffffffffffff163373ffffffffffffffffffffffffffffffffffffffff161461030f576040517f08c379a000000000000000000000000000000000000000000000000000000000815260040161030690610e28565b60405180910390fd5b6003600081548092919061032290610e77565b919050555060405180608001604052806003548152602001828152602001600081526020016000815250600260006003548152602001908152602001600020600082015181600001556020820151816001019080519060200190610387929190610806565b50604082015181600201556060820151816003015590505050565b6000806000831180156103b757506003548311155b6103f6576040517f08c379a00000000000000000000000000000000000000000000000000000000081526004016103ed90610f0b565b60405180910390fd5b6002600084815260200190815260200160002060020154600260008581526020019081526020016000206003015491509150915091565b60016020528060005260406000206000915090508060000160009054906101000a900460ff16908060000160019054906101000a900460ff16905082565b600460009054906101000a900460ff1681565b60035481565b60008054906101000a900473ffffffffffffffffffffffffffffffffffffffff1673ffffffffffffffffffffffffffffffffffffffff163373ffffffffffffffffffffffffffffffffffffffff1614610512576040517f08c379a000000000000000000000000000000000000000000000000000000000815260040161050990610e28565b60405180910390fd5b6000600460006101000a81548160ff0219169083151502179055507f7a19ed057db79e3c2fa0b97a54b43bef4fce74b31bb6c01af514b9a18a7f70ab60405160405180910390a1565b600460009054906101000a900460ff166105aa576040517f08c379a00000000000000000000000000000000000000000000000000000000081526004016105a190610f77565b60405180910390fd5b600160003373ffffffffffffffffffffffffffffffffffffffff1673ffffffffffffffffffffffffffffffffffffffff16815260200190815260200160002060000160009054906101000a900460ff161561063a576040517f08c379a000000000000000000000000000000000000000000000000000000000815260040161063190610fe3565b60405180910390fd5b60008211801561064c57506003548211155b61068b576040517f08c379a000000000000000000000000000000000000000000000000000000000815260040161068290610f0b565b60405180910390fd5b60018060003373ffffffffffffffffffffffffffffffffffffffff1673ffffffffffffffffffffffffffffffffffffffff16815260200190815260200160002060000160006101000a81548160ff02191690831515021790555080600160003373ffffffffffffffffffffffffffffffffffffffff1673ffffffffffffffffffffffffffffffffffffffff16815260200190815260200160002060000160016101000a81548160ff02191690831515021790555080156107765760026000838152602001908152602001600020600201600081548092919061076c90610e77565b91905055506107a3565b60026000838152602001908152602001600020600301600081548092919061079d90610e77565b91905055505b7facaeaa5073ce434a8569b11d2949143f045ff49b3153b3bb6c6cae525a5e17993383836040516107d693929190611003565b60405180910390a15050565b60008054906101000a900473ffffffffffffffffffffffffffffffffffffffff1681565b82805461081290610d85565b90600052602060002090601f016020900481019282610834576000855561087b565b82601f1061084d57805160ff191683800117855561087b565b8280016001018555821561087b579182015b8281111561087a57825182559160200191906001019061085f565b5b509050610888919061088c565b5090565b5b808211156108a557600081600090555060010161088d565b5090565b6000604051905090565b600080fd5b600080fd5b6000819050919050565b6108d0816108bd565b81146108db57600080fd5b50565b6000813590506108ed816108c7565b92915050565b600060208284031215610909576109086108b3565b5b6000610917848285016108de565b91505092915050565b610929816108bd565b82525050565b600081519050919050565b600082825260208201905092915050565b60005b8381101561096957808201518184015260208101905061094e565b83811115610978576000848401525b50505050565b6000601f19601f8301169050919050565b600061099a8261092f565b6109a4818561093a565b93506109b481856020860161094b565b6109bd8161097e565b840191505092915050565b60006080820190506109dd6000830187610920565b81810360208301526109ef818661098f565b90506109fe6040830185610920565b610a0b6060830184610920565b95945050505050565b600080fd5b600080fd5b7f4e487b7100000000000000000000000000000000000000000000000000000000600052604160045260246000fd5b610a568261097e565b810181811067ffffffffffffffff82111715610a7557610a74610a1e565b5b80604052505050565b6000610a886108a9565b9050610a948282610a4d565b919050565b600067ffffffffffffffff821115610ab457610ab3610a1e565b5b610abd8261097e565b9050602081019050919050565b82818337600083830152505050565b6000610aec610ae784610a99565b610a7e565b905082815260208101848484011115610b0857610b07610a19565b5b610b13848285610aca565b509392505050565b600082601f830112610b3057610b2f610a14565b5b8135610b40848260208601610ad9565b91505092915050565b600060208284031215610b5f57610b5e6108b3565b5b600082013567ffffffffffffffff811115610b7d57610b7c6108b8565b5b610b8984828501610b1b565b91505092915050565b6000604082019050610ba76000830185610920565b610bb46020830184610920565b9392505050565b600073ffffffffffffffffffffffffffffffffffffffff82169050919050565b6000610be682610bbb565b9050919050565b610bf681610bdb565b8114610c0157600080fd5b50565b600081359050610c1381610bed565b92915050565b600060208284031215610c2f57610c2e6108b3565b5b6000610c3d84828501610c04565b91505092915050565b60008115159050919050565b610c5b81610c46565b82525050565b6000604082019050610c766000830185610c52565b610c836020830184610c52565b9392505050565b6000602082019050610c9f6000830184610c52565b92915050565b6000602082019050610cba6000830184610920565b92915050565b610cc981610c46565b8114610cd457600080fd5b50565b600081359050610ce681610cc0565b92915050565b60008060408385031215610d0357610d026108b3565b5b6000610d11858286016108de565b9250506020610d2285828601610cd7565b9150509250929050565b610d3581610bdb565b82525050565b6000602082019050610d506000830184610d2c565b92915050565b7f4e487b7100000000000000000000000000000000000000000000000000000000600052602260045260246000fd5b60006002820490506001821680610d9d57607f821691505b602082108103610db057610daf610d56565b5b50919050565b7f4f6e6c792061646d696e2063616e20706572666f726d2074686973206163746960008201527f6f6e000000000000000000000000000000000000000000000000000000000000602082015250565b6000610e1260228361093a565b9150610e1d82610db6565b604082019050919050565b60006020820190508181036000830152610e4181610e05565b9050919050565b7f4e487b7100000000000000000000000000000000000000000000000000000000600052601160045260246000fd5b6000610e82826108bd565b91507fffffffffffffffffffffffffffffffffffffffffffffffffffffffffffffffff8203610eb457610eb3610e48565b5b600182019050919050565b7f496e76616c69642063616e646964617465000000000000000000000000000000600082015250565b6000610ef560118361093a565b9150610f0082610ebf565b602082019050919050565b60006020820190508181036000830152610f2481610ee8565b9050919050565b7f566f74696e67206973206e6f74206f70656e0000000000000000000000000000600082015250565b6000610f6160128361093a565b9150610f6c82610f2b565b602082019050919050565b60006020820190508181036000830152610f9081610f54565b9050919050565b7f416c726561647920766f74656400000000000000000000000000000000000000600082015250565b6000610fcd600d8361093a565b9150610fd882610f97565b602082019050919050565b60006020820190508181036000830152610ffc81610fc0565b9050919050565b60006060820190506110186000830186610d2c565b6110256020830185610920565b6110326040830184610c52565b94935050505056fea2646970667358221220c58c3740be1cdbcf95825f2dd6fd820690130ea10f6f1d1025e26a7009d271c364736f6c634300080d0033",
  "immutableReferences": {},
  "source": "// SPDX-License-Identifier: MIT\npragma solidity >=0.4.22 <0.9.0;\n\ncontract YesNoVoting {\n    struct Candidate {\n        uint id;\n        string name;\n        uint yesVotes;\n        uint noVotes;\n    }\n\n    struct Voter {\n        bool hasVoted;\n        bool vote;\n    }\n\n    address public admin;\n    mapping(address => Voter) public voters;\n    mapping(uint => Candidate) public candidates;\n    uint public candidateCount;\n    bool public votingOpen;\n\n    event VoteSubmitted(address voter, uint candidateId, bool vote);\n    event VotingEnded();\n\n    modifier onlyAdmin() {\n        require(msg.sender == admin, \"Only admin can perform this action\");\n        _;\n    }\n\n    modifier votingIsOpen() {\n        require(votingOpen, \"Voting is not open\");\n        _;\n    }\n\n    constructor() {\n        admin = msg.sender;\n        votingOpen = true;\n        candidateCount = 0;\n    }\n\n    function addCandidate(string memory _name) public onlyAdmin {\n        candidateCount++;\n        candidates[candidateCount] = Candidate(candidateCount, _name, 0, 0);\n    }\n\n    function vote(uint _candidateId, bool _vote) public votingIsOpen {\n        require(!voters[msg.sender].hasVoted, \"Already voted\");\n        require(\n            _candidateId > 0 && _candidateId <= candidateCount,\n            \"Invalid candidate\"\n        );\n\n        voters[msg.sender].hasVoted = true;\n        voters[msg.sender].vote = _vote;\n\n        if (_vote) {\n            candidates[_candidateId].yesVotes++;\n        } else {\n            candidates[_candidateId].noVotes++;\n        }\n\n        emit VoteSubmitted(msg.sender, _candidateId, _vote);\n    }\n\n    function endVoting() public onlyAdmin {\n        votingOpen = false;\n        emit VotingEnded();\n    }\n\n    function getCandidateVotes(\n        uint _candidateId\n    ) public view returns (uint yesVotes, uint noVotes) {\n        require(\n            _candidateId > 0 && _candidateId <= candidateCount,\n            \"Invalid candidate\"\n        );\n        return (\n            candidates[_candidateId].yesVotes,\n            candidates[_candidateId].noVotes\n        );\n    }\n}\n",
  "sourcePath": "/home/stanley/btda-self-tallying-election/contracts/YesNoVoting.sol",
  "compiler": {
    "name": "solc",
    "version": "0.8.13+commit.abaa5c0e.Emscripten.clang"
  },
  "schemaVersion": "3.4.16",
  "updatedAt": "2024-07-02T20:18:07.734Z",
  "networkType": "ethereum",
  "devdoc": {
    "kind": "dev",
    "methods": {},
    "version": 1
  },
  "userdoc": {
    "kind": "user",
    "methods": {},
    "version": 1
  }
}