{
  "contractName": "YesNoVoting",
  "abi": [
    {
      "inputs": [],
      "stateMutability": "nonpayable",
      "type": "constructor"
    },
    {
      "anonymous": false,
      "inputs": [
        {
          "indexed": false,
          "internalType": "address",
          "name": "voter",
          "type": "address"
        },
        {
          "indexed": false,
          "internalType": "uint256",
          "name": "candidateId",
          "type": "uint256"
        },
        {
          "indexed": false,
          "internalType": "bool",
          "name": "vote",
          "type": "bool"
        }
      ],
      "name": "VoteSubmitted",
      "type": "event"
    },
    {
      "anonymous": false,
      "inputs": [],
      "name": "VotingEnded",
      "type": "event"
    },
    {
      "anonymous": false,
      "inputs": [],
      "name": "VotingStarted",
      "type": "event"
    },
    {
      "inputs": [],
      "name": "admin",
      "outputs": [
        {
          "internalType": "address",
          "name": "",
          "type": "address"
        }
      ],
      "stateMutability": "view",
      "type": "function",
      "constant": true
    },
    {
      "inputs": [],
      "name": "candidateCount",
      "outputs": [
        {
          "internalType": "uint256",
          "name": "",
          "type": "uint256"
        }
      ],
      "stateMutability": "view",
      "type": "function",
      "constant": true
    },
    {
      "inputs": [
        {
          "internalType": "uint256",
          "name": "",
          "type": "uint256"
        }
      ],
      "name": "candidates",
      "outputs": [
        {
          "internalType": "uint256",
          "name": "id",
          "type": "uint256"
        },
        {
          "internalType": "string",
          "name": "name",
          "type": "string"
        },
        {
          "internalType": "uint256",
          "name": "yesVotes",
          "type": "uint256"
        },
        {
          "internalType": "uint256",
          "name": "noVotes",
          "type": "uint256"
        }
      ],
      "stateMutability": "view",
      "type": "function",
      "constant": true
    },
    {
      "inputs": [
        {
          "internalType": "address",
          "name": "",
          "type": "address"
        }
      ],
      "name": "voters",
      "outputs": [
        {
          "internalType": "bool",
          "name": "hasVoted",
          "type": "bool"
        },
        {
          "internalType": "bool",
          "name": "vote",
          "type": "bool"
        }
      ],
      "stateMutability": "view",
      "type": "function",
      "constant": true
    },
    {
      "inputs": [],
      "name": "votingState",
      "outputs": [
        {
          "internalType": "uint256",
          "name": "",
          "type": "uint256"
        }
      ],
      "stateMutability": "view",
      "type": "function",
      "constant": true
    },
    {
      "inputs": [
        {
          "internalType": "string",
          "name": "_name",
          "type": "string"
        }
      ],
      "name": "addCandidate",
      "outputs": [],
      "stateMutability": "nonpayable",
      "type": "function"
    },
    {
      "inputs": [],
      "name": "getCandidates",
      "outputs": [
        {
          "components": [
            {
              "internalType": "uint256",
              "name": "id",
              "type": "uint256"
            },
            {
              "internalType": "string",
              "name": "name",
              "type": "string"
            },
            {
              "internalType": "uint256",
              "name": "yesVotes",
              "type": "uint256"
            },
            {
              "internalType": "uint256",
              "name": "noVotes",
              "type": "uint256"
            }
          ],
          "internalType": "struct YesNoVoting.Candidate[]",
          "name": "",
          "type": "tuple[]"
        }
      ],
      "stateMutability": "view",
      "type": "function",
      "constant": true
    },
    {
      "inputs": [
        {
          "internalType": "uint256",
          "name": "_candidateId",
          "type": "uint256"
        },
        {
          "internalType": "bool",
          "name": "_vote",
          "type": "bool"
        }
      ],
      "name": "vote",
      "outputs": [],
      "stateMutability": "nonpayable",
      "type": "function"
    },
    {
      "inputs": [],
      "name": "startVoting",
      "outputs": [],
      "stateMutability": "nonpayable",
      "type": "function"
    },
    {
      "inputs": [],
      "name": "endVoting",
      "outputs": [],
      "stateMutability": "nonpayable",
      "type": "function"
    },
    {
      "inputs": [],
      "name": "getVotingStatus",
      "outputs": [
        {
          "internalType": "uint256",
          "name": "",
          "type": "uint256"
        }
      ],
      "stateMutability": "view",
      "type": "function",
      "constant": true
    },
    {
      "inputs": [
        {
          "internalType": "uint256",
          "name": "_candidateId",
          "type": "uint256"
        }
      ],
      "name": "getCandidateVotes",
      "outputs": [
        {
          "internalType": "uint256",
          "name": "yesVotes",
          "type": "uint256"
        },
        {
          "internalType": "uint256",
          "name": "noVotes",
          "type": "uint256"
        }
      ],
      "stateMutability": "view",
      "type": "function",
      "constant": true
    },
    {
      "inputs": [],
      "name": "getWinner",
      "outputs": [
        {
          "components": [
            {
              "internalType": "uint256",
              "name": "id",
              "type": "uint256"
            },
            {
              "internalType": "string",
              "name": "name",
              "type": "string"
            },
            {
              "internalType": "uint256",
              "name": "yesVotes",
              "type": "uint256"
            },
            {
              "internalType": "uint256",
              "name": "noVotes",
              "type": "uint256"
            }
          ],
          "internalType": "struct YesNoVoting.Candidate",
          "name": "",
          "type": "tuple"
        }
      ],
      "stateMutability": "view",
      "type": "function",
      "constant": true
    }
  ],
  "bytecode": "0x608060405234801561001057600080fd5b50336000806101000a81548173ffffffffffffffffffffffffffffffffffffffff021916908373ffffffffffffffffffffffffffffffffffffffff160217905550600060038190555060006004819055506119dd806100706000396000f3fe608060405234801561001057600080fd5b50600436106100cf5760003560e01c80638e7ea5b21161008c578063b62312bf11610066578063b62312bf14610207578063c3403ddf14610225578063c9d27afe1461022f578063f851a4401461024b576100cf565b80638e7ea5b21461019a578063a3ec138d146101b8578063a9a981a3146101e9576100cf565b806306a49fce146100d45780631ec6b60a146100f25780633477ee2e146100fc578063462e91ec1461012f578063581c281c1461014b578063866163c014610169575b600080fd5b6100dc610269565b6040516100e991906110a8565b60405180910390f35b6100fa6103e8565b005b6101166004803603810190610111919061110a565b6104f1565b6040516101269493929190611190565b60405180910390f35b61014960048036038101906101449190611311565b6105a9565b005b61015361070f565b604051610160919061135a565b60405180910390f35b610183600480360381019061017e919061110a565b610719565b604051610191929190611375565b60405180910390f35b6101a26107a4565b6040516101af9190611401565b60405180910390f35b6101d260048036038101906101cd9190611481565b610a12565b6040516101e09291906114c9565b60405180910390f35b6101f1610a50565b6040516101fe919061135a565b60405180910390f35b61020f610a56565b60405161021c919061135a565b60405180910390f35b61022d610a5c565b005b6102496004803603810190610244919061151e565b610b65565b005b610253610de2565b604051610260919061156d565b60405180910390f35b6060600060035467ffffffffffffffff811115610289576102886111e6565b5b6040519080825280602002602001820160405280156102c257816020015b6102af610e06565b8152602001906001900390816102a75790505b5090506000600190505b60035481116103e057600260008281526020019081526020016000206040518060800160405290816000820154815260200160018201805461030d906115b7565b80601f0160208091040260200160405190810160405280929190818152602001828054610339906115b7565b80156103865780601f1061035b57610100808354040283529160200191610386565b820191906000526020600020905b81548152906001019060200180831161036957829003601f168201915b5050505050815260200160028201548152602001600382015481525050826001836103b19190611617565b815181106103c2576103c161164b565b5b602002602001018190525080806103d89061167a565b9150506102cc565b508091505090565b60008054906101000a900473ffffffffffffffffffffffffffffffffffffffff1673ffffffffffffffffffffffffffffffffffffffff163373ffffffffffffffffffffffffffffffffffffffff1614610476576040517f08c379a000000000000000000000000000000000000000000000000000000000815260040161046d90611734565b60405180910390fd5b6001600454036104bb576040517f08c379a00000000000000000000000000000000000000000000000000000000081526004016104b2906117a0565b60405180910390fd5b60016004819055507f877e2548498f42b7975a186b94ef1d32c86d420b7b806dd2be2bea293b89590460405160405180910390a1565b600260205280600052604060002060009150905080600001549080600101805461051a906115b7565b80601f0160208091040260200160405190810160405280929190818152602001828054610546906115b7565b80156105935780601f1061056857610100808354040283529160200191610593565b820191906000526020600020905b81548152906001019060200180831161057657829003601f168201915b5050505050908060020154908060030154905084565b60008054906101000a900473ffffffffffffffffffffffffffffffffffffffff1673ffffffffffffffffffffffffffffffffffffffff163373ffffffffffffffffffffffffffffffffffffffff1614610637576040517f08c379a000000000000000000000000000000000000000000000000000000000815260040161062e90611734565b60405180910390fd5b60016004540361067c576040517f08c379a0000000000000000000000000000000000000000000000000000000008152600401610673906117a0565b60405180910390fd5b6003600081548092919061068f9061167a565b9190505550604051806080016040528060035481526020018281526020016000815260200160008152506002600060035481526020019081526020016000206000820151816000015560208201518160010190805190602001906106f4929190610e2e565b50604082015181600201556060820151816003015590505050565b6000600454905090565b60008060008311801561072e57506003548311155b61076d576040517f08c379a00000000000000000000000000000000000000000000000000000000081526004016107649061180c565b60405180910390fd5b6002600084815260200190815260200160002060020154600260008581526020019081526020016000206003015491509150915091565b6107ac610e06565b6002600454146107f1576040517f08c379a00000000000000000000000000000000000000000000000000000000081526004016107e890611878565b60405180910390fd5b600060026000600181526020019081526020016000206040518060800160405290816000820154815260200160018201805461082c906115b7565b80601f0160208091040260200160405190810160405280929190818152602001828054610858906115b7565b80156108a55780601f1061087a576101008083540402835291602001916108a5565b820191906000526020600020905b81548152906001019060200180831161088857829003601f168201915b505050505081526020016002820154815260200160038201548152505090506000600290505b6003548111610a0a57816060015182604001516108e89190611617565b600260008381526020019081526020016000206003015460026000848152602001908152602001600020600201546109209190611617565b11156109f757600260008281526020019081526020016000206040518060800160405290816000820154815260200160018201805461095e906115b7565b80601f016020809104026020016040519081016040528092919081815260200182805461098a906115b7565b80156109d75780601f106109ac576101008083540402835291602001916109d7565b820191906000526020600020905b8154815290600101906020018083116109ba57829003601f168201915b505050505081526020016002820154815260200160038201548152505091505b8080610a029061167a565b9150506108cb565b508091505090565b60016020528060005260406000206000915090508060000160009054906101000a900460ff16908060000160019054906101000a900460ff16905082565b60035481565b60045481565b60008054906101000a900473ffffffffffffffffffffffffffffffffffffffff1673ffffffffffffffffffffffffffffffffffffffff163373ffffffffffffffffffffffffffffffffffffffff1614610aea576040517f08c379a0000000000000000000000000000000000000000000000000000000008152600401610ae190611734565b60405180910390fd5b600160045414610b2f576040517f08c379a0000000000000000000000000000000000000000000000000000000008152600401610b26906118e4565b60405180910390fd5b60026004819055507f7a19ed057db79e3c2fa0b97a54b43bef4fce74b31bb6c01af514b9a18a7f70ab60405160405180910390a1565b600160045414610baa576040517f08c379a0000000000000000000000000000000000000000000000000000000008152600401610ba1906118e4565b60405180910390fd5b600160003373ffffffffffffffffffffffffffffffffffffffff1673ffffffffffffffffffffffffffffffffffffffff16815260200190815260200160002060000160009054906101000a900460ff1615610c3a576040517f08c379a0000000000000000000000000000000000000000000000000000000008152600401610c3190611950565b60405180910390fd5b600082118015610c4c57506003548211155b610c8b576040517f08c379a0000000000000000000000000000000000000000000000000000000008152600401610c829061180c565b60405180910390fd5b60018060003373ffffffffffffffffffffffffffffffffffffffff1673ffffffffffffffffffffffffffffffffffffffff16815260200190815260200160002060000160006101000a81548160ff02191690831515021790555080600160003373ffffffffffffffffffffffffffffffffffffffff1673ffffffffffffffffffffffffffffffffffffffff16815260200190815260200160002060000160016101000a81548160ff0219169083151502179055508015610d7657600260008381526020019081526020016000206002016000815480929190610d6c9061167a565b9190505550610da3565b600260008381526020019081526020016000206003016000815480929190610d9d9061167a565b91905055505b7facaeaa5073ce434a8569b11d2949143f045ff49b3153b3bb6c6cae525a5e1799338383604051610dd693929190611970565b60405180910390a15050565b60008054906101000a900473ffffffffffffffffffffffffffffffffffffffff1681565b6040518060800160405280600081526020016060815260200160008152602001600081525090565b828054610e3a906115b7565b90600052602060002090601f016020900481019282610e5c5760008555610ea3565b82601f10610e7557805160ff1916838001178555610ea3565b82800160010185558215610ea3579182015b82811115610ea2578251825591602001919060010190610e87565b5b509050610eb09190610eb4565b5090565b5b80821115610ecd576000816000905550600101610eb5565b5090565b600081519050919050565b600082825260208201905092915050565b6000819050602082019050919050565b6000819050919050565b610f1081610efd565b82525050565b600081519050919050565b600082825260208201905092915050565b60005b83811015610f50578082015181840152602081019050610f35565b83811115610f5f576000848401525b50505050565b6000601f19601f8301169050919050565b6000610f8182610f16565b610f8b8185610f21565b9350610f9b818560208601610f32565b610fa481610f65565b840191505092915050565b6000608083016000830151610fc76000860182610f07565b5060208301518482036020860152610fdf8282610f76565b9150506040830151610ff46040860182610f07565b5060608301516110076060860182610f07565b508091505092915050565b600061101e8383610faf565b905092915050565b6000602082019050919050565b600061103e82610ed1565b6110488185610edc565b93508360208202850161105a85610eed565b8060005b8581101561109657848403895281516110778582611012565b945061108283611026565b925060208a0199505060018101905061105e565b50829750879550505050505092915050565b600060208201905081810360008301526110c28184611033565b905092915050565b6000604051905090565b600080fd5b600080fd5b6110e781610efd565b81146110f257600080fd5b50565b600081359050611104816110de565b92915050565b6000602082840312156111205761111f6110d4565b5b600061112e848285016110f5565b91505092915050565b61114081610efd565b82525050565b600082825260208201905092915050565b600061116282610f16565b61116c8185611146565b935061117c818560208601610f32565b61118581610f65565b840191505092915050565b60006080820190506111a56000830187611137565b81810360208301526111b78186611157565b90506111c66040830185611137565b6111d36060830184611137565b95945050505050565b600080fd5b600080fd5b7f4e487b7100000000000000000000000000000000000000000000000000000000600052604160045260246000fd5b61121e82610f65565b810181811067ffffffffffffffff8211171561123d5761123c6111e6565b5b80604052505050565b60006112506110ca565b905061125c8282611215565b919050565b600067ffffffffffffffff82111561127c5761127b6111e6565b5b61128582610f65565b9050602081019050919050565b82818337600083830152505050565b60006112b46112af84611261565b611246565b9050828152602081018484840111156112d0576112cf6111e1565b5b6112db848285611292565b509392505050565b600082601f8301126112f8576112f76111dc565b5b81356113088482602086016112a1565b91505092915050565b600060208284031215611327576113266110d4565b5b600082013567ffffffffffffffff811115611345576113446110d9565b5b611351848285016112e3565b91505092915050565b600060208201905061136f6000830184611137565b92915050565b600060408201905061138a6000830185611137565b6113976020830184611137565b9392505050565b60006080830160008301516113b66000860182610f07565b50602083015184820360208601526113ce8282610f76565b91505060408301516113e36040860182610f07565b5060608301516113f66060860182610f07565b508091505092915050565b6000602082019050818103600083015261141b818461139e565b905092915050565b600073ffffffffffffffffffffffffffffffffffffffff82169050919050565b600061144e82611423565b9050919050565b61145e81611443565b811461146957600080fd5b50565b60008135905061147b81611455565b92915050565b600060208284031215611497576114966110d4565b5b60006114a58482850161146c565b91505092915050565b60008115159050919050565b6114c3816114ae565b82525050565b60006040820190506114de60008301856114ba565b6114eb60208301846114ba565b9392505050565b6114fb816114ae565b811461150657600080fd5b50565b600081359050611518816114f2565b92915050565b60008060408385031215611535576115346110d4565b5b6000611543858286016110f5565b925050602061155485828601611509565b9150509250929050565b61156781611443565b82525050565b6000602082019050611582600083018461155e565b92915050565b7f4e487b7100000000000000000000000000000000000000000000000000000000600052602260045260246000fd5b600060028204905060018216806115cf57607f821691505b6020821081036115e2576115e1611588565b5b50919050565b7f4e487b7100000000000000000000000000000000000000000000000000000000600052601160045260246000fd5b600061162282610efd565b915061162d83610efd565b9250828210156116405761163f6115e8565b5b828203905092915050565b7f4e487b7100000000000000000000000000000000000000000000000000000000600052603260045260246000fd5b600061168582610efd565b91507fffffffffffffffffffffffffffffffffffffffffffffffffffffffffffffffff82036116b7576116b66115e8565b5b600182019050919050565b7f4f6e6c792061646d696e2063616e20706572666f726d2074686973206163746960008201527f6f6e000000000000000000000000000000000000000000000000000000000000602082015250565b600061171e602283611146565b9150611729826116c2565b604082019050919050565b6000602082019050818103600083015261174d81611711565b9050919050565b7f566f74696e67206973206f70656e000000000000000000000000000000000000600082015250565b600061178a600e83611146565b915061179582611754565b602082019050919050565b600060208201905081810360008301526117b98161177d565b9050919050565b7f496e76616c69642063616e646964617465000000000000000000000000000000600082015250565b60006117f6601183611146565b9150611801826117c0565b602082019050919050565b60006020820190508181036000830152611825816117e9565b9050919050565b7f566f74696e67206973206e6f7420656e64656400000000000000000000000000600082015250565b6000611862601383611146565b915061186d8261182c565b602082019050919050565b6000602082019050818103600083015261189181611855565b9050919050565b7f566f74696e67206973206e6f74206f70656e0000000000000000000000000000600082015250565b60006118ce601283611146565b91506118d982611898565b602082019050919050565b600060208201905081810360008301526118fd816118c1565b9050919050565b7f416c726561647920766f74656400000000000000000000000000000000000000600082015250565b600061193a600d83611146565b915061194582611904565b602082019050919050565b600060208201905081810360008301526119698161192d565b9050919050565b6000606082019050611985600083018661155e565b6119926020830185611137565b61199f60408301846114ba565b94935050505056fea2646970667358221220a0e06f48f473420f46ca24d1f5fc4ad42f2d54d3eb9892f81e59a4d056841c5164736f6c634300080d0033",
  "immutableReferences": {},
  "source": "// SPDX-License-Identifier: MIT\npragma solidity >=0.4.22 <0.9.0;\n\ncontract YesNoVoting {\n    struct Candidate {\n        uint id;\n        string name;\n        uint yesVotes;\n        uint noVotes;\n    }\n\n    struct Voter {\n        bool hasVoted;\n        bool vote;\n    }\n\n    address public admin;\n    mapping(address => Voter) public voters;\n    mapping(uint => Candidate) public candidates;\n    uint public candidateCount;\n    // 0 - voting not started, 1 - voting started, 2 - voting ended\n    uint public votingState;\n\n    event VoteSubmitted(address voter, uint candidateId, bool vote);\n    event VotingStarted();\n    event VotingEnded();\n\n    modifier onlyAdmin() {\n        require(msg.sender == admin, \"Only admin can perform this action\");\n        _;\n    }\n\n    modifier votingIsOpen() {\n        require(votingState == 1, \"Voting is not open\");\n        _;\n    }\n\n    modifier votingIsNotOpen() {\n        require(votingState != 1, \"Voting is open\");\n        _;\n    }\n\n    constructor() {\n        admin = msg.sender;\n        candidateCount = 0;\n        votingState = 0;\n    }\n\n    function addCandidate(\n        string memory _name\n    ) public onlyAdmin votingIsNotOpen {\n        candidateCount++;\n        candidates[candidateCount] = Candidate(candidateCount, _name, 0, 0);\n    }\n\n    function getCandidates() public view returns (Candidate[] memory) {\n        Candidate[] memory _candidates = new Candidate[](candidateCount);\n        for (uint i = 1; i <= candidateCount; i++) {\n            _candidates[i - 1] = candidates[i];\n        }\n        return _candidates;\n    }\n\n    function vote(uint _candidateId, bool _vote) public votingIsOpen {\n        require(!voters[msg.sender].hasVoted, \"Already voted\");\n        require(\n            _candidateId > 0 && _candidateId <= candidateCount,\n            \"Invalid candidate\"\n        );\n\n        voters[msg.sender].hasVoted = true;\n        voters[msg.sender].vote = _vote;\n\n        if (_vote) {\n            candidates[_candidateId].yesVotes++;\n        } else {\n            candidates[_candidateId].noVotes++;\n        }\n\n        emit VoteSubmitted(msg.sender, _candidateId, _vote);\n    }\n\n    function startVoting() public onlyAdmin votingIsNotOpen {\n        votingState = 1;\n        emit VotingStarted();\n    }\n\n    function endVoting() public onlyAdmin votingIsOpen {\n        votingState = 2;\n        emit VotingEnded();\n    }\n\n    function getVotingStatus() public view returns (uint) {\n        return votingState;\n    }\n\n    function getCandidateVotes(\n        uint _candidateId\n    ) public view returns (uint yesVotes, uint noVotes) {\n        require(\n            _candidateId > 0 && _candidateId <= candidateCount,\n            \"Invalid candidate\"\n        );\n        return (\n            candidates[_candidateId].yesVotes,\n            candidates[_candidateId].noVotes\n        );\n    }\n\n    function getWinner() public view returns (Candidate memory) {\n        require(votingState == 2, \"Voting is not ended\");\n\n        Candidate memory winner = candidates[1];\n        for (uint i = 2; i <= candidateCount; i++) {\n            if (\n                candidates[i].yesVotes - candidates[i].noVotes >\n                winner.yesVotes - winner.noVotes\n            ) {\n                winner = candidates[i];\n            }\n        }\n\n        return winner;\n    }\n}\n",
  "sourcePath": "/home/stanley/btda-self-tallying-election/contracts/YesNoVoting.sol",
  "compiler": {
    "name": "solc",
    "version": "0.8.13+commit.abaa5c0e.Emscripten.clang"
  },
  "schemaVersion": "3.4.16",
  "updatedAt": "2024-07-03T15:17:25.311Z",
  "networkType": "ethereum",
  "devdoc": {
    "kind": "dev",
    "methods": {},
    "version": 1
  },
  "userdoc": {
    "kind": "user",
    "methods": {},
    "version": 1
  }
}