{
  "contractName": "YesNoVoting",
  "abi": [
    {
      "inputs": [],
      "stateMutability": "nonpayable",
      "type": "constructor"
    },
    {
      "anonymous": false,
      "inputs": [
        {
          "indexed": false,
          "internalType": "address",
          "name": "voter",
          "type": "address"
        },
        {
          "indexed": false,
          "internalType": "uint256",
          "name": "candidateId",
          "type": "uint256"
        },
        {
          "indexed": false,
          "internalType": "bool",
          "name": "vote",
          "type": "bool"
        }
      ],
      "name": "VoteSubmitted",
      "type": "event"
    },
    {
      "anonymous": false,
      "inputs": [],
      "name": "VotingEnded",
      "type": "event"
    },
    {
      "anonymous": false,
      "inputs": [],
      "name": "VotingStarted",
      "type": "event"
    },
    {
      "inputs": [],
      "name": "admin",
      "outputs": [
        {
          "internalType": "address",
          "name": "",
          "type": "address"
        }
      ],
      "stateMutability": "view",
      "type": "function",
      "constant": true
    },
    {
      "inputs": [],
      "name": "candidateCount",
      "outputs": [
        {
          "internalType": "uint256",
          "name": "",
          "type": "uint256"
        }
      ],
      "stateMutability": "view",
      "type": "function",
      "constant": true
    },
    {
      "inputs": [
        {
          "internalType": "uint256",
          "name": "",
          "type": "uint256"
        }
      ],
      "name": "candidates",
      "outputs": [
        {
          "internalType": "uint256",
          "name": "id",
          "type": "uint256"
        },
        {
          "internalType": "string",
          "name": "name",
          "type": "string"
        },
        {
          "internalType": "uint256",
          "name": "yesVotes",
          "type": "uint256"
        },
        {
          "internalType": "uint256",
          "name": "noVotes",
          "type": "uint256"
        }
      ],
      "stateMutability": "view",
      "type": "function",
      "constant": true
    },
    {
      "inputs": [
        {
          "internalType": "address",
          "name": "",
          "type": "address"
        }
      ],
      "name": "voters",
      "outputs": [
        {
          "internalType": "bool",
          "name": "hasVoted",
          "type": "bool"
        },
        {
          "internalType": "bool",
          "name": "vote",
          "type": "bool"
        }
      ],
      "stateMutability": "view",
      "type": "function",
      "constant": true
    },
    {
      "inputs": [],
      "name": "votingState",
      "outputs": [
        {
          "internalType": "uint256",
          "name": "",
          "type": "uint256"
        }
      ],
      "stateMutability": "view",
      "type": "function",
      "constant": true
    },
    {
      "inputs": [
        {
          "internalType": "string",
          "name": "_name",
          "type": "string"
        }
      ],
      "name": "addCandidate",
      "outputs": [],
      "stateMutability": "nonpayable",
      "type": "function"
    },
    {
      "inputs": [],
      "name": "getCandidates",
      "outputs": [
        {
          "components": [
            {
              "internalType": "uint256",
              "name": "id",
              "type": "uint256"
            },
            {
              "internalType": "string",
              "name": "name",
              "type": "string"
            },
            {
              "internalType": "uint256",
              "name": "yesVotes",
              "type": "uint256"
            },
            {
              "internalType": "uint256",
              "name": "noVotes",
              "type": "uint256"
            }
          ],
          "internalType": "struct YesNoVoting.Candidate[]",
          "name": "",
          "type": "tuple[]"
        }
      ],
      "stateMutability": "view",
      "type": "function",
      "constant": true
    },
    {
      "inputs": [
        {
          "internalType": "uint256",
          "name": "_candidateId",
          "type": "uint256"
        },
        {
          "internalType": "bool",
          "name": "_vote",
          "type": "bool"
        }
      ],
      "name": "vote",
      "outputs": [],
      "stateMutability": "nonpayable",
      "type": "function"
    },
    {
      "inputs": [],
      "name": "startVoting",
      "outputs": [],
      "stateMutability": "nonpayable",
      "type": "function"
    },
    {
      "inputs": [],
      "name": "endVoting",
      "outputs": [],
      "stateMutability": "nonpayable",
      "type": "function"
    },
    {
      "inputs": [],
      "name": "getVotingStatus",
      "outputs": [
        {
          "internalType": "uint256",
          "name": "",
          "type": "uint256"
        }
      ],
      "stateMutability": "view",
      "type": "function",
      "constant": true
    },
    {
      "inputs": [
        {
          "internalType": "uint256",
          "name": "_candidateId",
          "type": "uint256"
        }
      ],
      "name": "getCandidateVotes",
      "outputs": [
        {
          "internalType": "uint256",
          "name": "yesVotes",
          "type": "uint256"
        },
        {
          "internalType": "uint256",
          "name": "noVotes",
          "type": "uint256"
        }
      ],
      "stateMutability": "view",
      "type": "function",
      "constant": true
    }
  ],
  "bytecode": "0x608060405234801561001057600080fd5b50336000806101000a81548173ffffffffffffffffffffffffffffffffffffffff021916908373ffffffffffffffffffffffffffffffffffffffff16021790555060006003819055506000600481905550611645806100706000396000f3fe608060405234801561001057600080fd5b50600436106100b45760003560e01c8063a3ec138d11610071578063a3ec138d1461017f578063a9a981a3146101b0578063b62312bf146101ce578063c3403ddf146101ec578063c9d27afe146101f6578063f851a44014610212576100b4565b806306a49fce146100b95780631ec6b60a146100d75780633477ee2e146100e1578063462e91ec14610114578063581c281c14610130578063866163c01461014e575b600080fd5b6100c1610230565b6040516100ce9190610e01565b60405180910390f35b6100df6103af565b005b6100fb60048036038101906100f69190610e63565b6104b8565b60405161010b9493929190610ee9565b60405180910390f35b61012e6004803603810190610129919061106a565b610570565b005b6101386106d6565b60405161014591906110b3565b60405180910390f35b61016860048036038101906101639190610e63565b6106e0565b6040516101769291906110ce565b60405180910390f35b61019960048036038101906101949190611155565b61076b565b6040516101a792919061119d565b60405180910390f35b6101b86107a9565b6040516101c591906110b3565b60405180910390f35b6101d66107af565b6040516101e391906110b3565b60405180910390f35b6101f46107b5565b005b610210600480360381019061020b91906111f2565b6108be565b005b61021a610b3b565b6040516102279190611241565b60405180910390f35b6060600060035467ffffffffffffffff8111156102505761024f610f3f565b5b60405190808252806020026020018201604052801561028957816020015b610276610b5f565b81526020019060019003908161026e5790505b5090506000600190505b60035481116103a75760026000828152602001908152602001600020604051806080016040529081600082015481526020016001820180546102d49061128b565b80601f01602080910402602001604051908101604052809291908181526020018280546103009061128b565b801561034d5780601f106103225761010080835404028352916020019161034d565b820191906000526020600020905b81548152906001019060200180831161033057829003601f168201915b50505050508152602001600282015481526020016003820154815250508260018361037891906112eb565b815181106103895761038861131f565b5b6020026020010181905250808061039f9061134e565b915050610293565b508091505090565b60008054906101000a900473ffffffffffffffffffffffffffffffffffffffff1673ffffffffffffffffffffffffffffffffffffffff163373ffffffffffffffffffffffffffffffffffffffff161461043d576040517f08c379a000000000000000000000000000000000000000000000000000000000815260040161043490611408565b60405180910390fd5b600160045403610482576040517f08c379a000000000000000000000000000000000000000000000000000000000815260040161047990611474565b60405180910390fd5b60016004819055507f877e2548498f42b7975a186b94ef1d32c86d420b7b806dd2be2bea293b89590460405160405180910390a1565b60026020528060005260406000206000915090508060000154908060010180546104e19061128b565b80601f016020809104026020016040519081016040528092919081815260200182805461050d9061128b565b801561055a5780601f1061052f5761010080835404028352916020019161055a565b820191906000526020600020905b81548152906001019060200180831161053d57829003601f168201915b5050505050908060020154908060030154905084565b60008054906101000a900473ffffffffffffffffffffffffffffffffffffffff1673ffffffffffffffffffffffffffffffffffffffff163373ffffffffffffffffffffffffffffffffffffffff16146105fe576040517f08c379a00000000000000000000000000000000000000000000000000000000081526004016105f590611408565b60405180910390fd5b600160045403610643576040517f08c379a000000000000000000000000000000000000000000000000000000000815260040161063a90611474565b60405180910390fd5b600360008154809291906106569061134e565b9190505550604051806080016040528060035481526020018281526020016000815260200160008152506002600060035481526020019081526020016000206000820151816000015560208201518160010190805190602001906106bb929190610b87565b50604082015181600201556060820151816003015590505050565b6000600454905090565b6000806000831180156106f557506003548311155b610734576040517f08c379a000000000000000000000000000000000000000000000000000000000815260040161072b906114e0565b60405180910390fd5b6002600084815260200190815260200160002060020154600260008581526020019081526020016000206003015491509150915091565b60016020528060005260406000206000915090508060000160009054906101000a900460ff16908060000160019054906101000a900460ff16905082565b60035481565b60045481565b60008054906101000a900473ffffffffffffffffffffffffffffffffffffffff1673ffffffffffffffffffffffffffffffffffffffff163373ffffffffffffffffffffffffffffffffffffffff1614610843576040517f08c379a000000000000000000000000000000000000000000000000000000000815260040161083a90611408565b60405180910390fd5b600160045414610888576040517f08c379a000000000000000000000000000000000000000000000000000000000815260040161087f9061154c565b60405180910390fd5b60026004819055507f7a19ed057db79e3c2fa0b97a54b43bef4fce74b31bb6c01af514b9a18a7f70ab60405160405180910390a1565b600160045414610903576040517f08c379a00000000000000000000000000000000000000000000000000000000081526004016108fa9061154c565b60405180910390fd5b600160003373ffffffffffffffffffffffffffffffffffffffff1673ffffffffffffffffffffffffffffffffffffffff16815260200190815260200160002060000160009054906101000a900460ff1615610993576040517f08c379a000000000000000000000000000000000000000000000000000000000815260040161098a906115b8565b60405180910390fd5b6000821180156109a557506003548211155b6109e4576040517f08c379a00000000000000000000000000000000000000000000000000000000081526004016109db906114e0565b60405180910390fd5b60018060003373ffffffffffffffffffffffffffffffffffffffff1673ffffffffffffffffffffffffffffffffffffffff16815260200190815260200160002060000160006101000a81548160ff02191690831515021790555080600160003373ffffffffffffffffffffffffffffffffffffffff1673ffffffffffffffffffffffffffffffffffffffff16815260200190815260200160002060000160016101000a81548160ff0219169083151502179055508015610acf57600260008381526020019081526020016000206002016000815480929190610ac59061134e565b9190505550610afc565b600260008381526020019081526020016000206003016000815480929190610af69061134e565b91905055505b7facaeaa5073ce434a8569b11d2949143f045ff49b3153b3bb6c6cae525a5e1799338383604051610b2f939291906115d8565b60405180910390a15050565b60008054906101000a900473ffffffffffffffffffffffffffffffffffffffff1681565b6040518060800160405280600081526020016060815260200160008152602001600081525090565b828054610b939061128b565b90600052602060002090601f016020900481019282610bb55760008555610bfc565b82601f10610bce57805160ff1916838001178555610bfc565b82800160010185558215610bfc579182015b82811115610bfb578251825591602001919060010190610be0565b5b509050610c099190610c0d565b5090565b5b80821115610c26576000816000905550600101610c0e565b5090565b600081519050919050565b600082825260208201905092915050565b6000819050602082019050919050565b6000819050919050565b610c6981610c56565b82525050565b600081519050919050565b600082825260208201905092915050565b60005b83811015610ca9578082015181840152602081019050610c8e565b83811115610cb8576000848401525b50505050565b6000601f19601f8301169050919050565b6000610cda82610c6f565b610ce48185610c7a565b9350610cf4818560208601610c8b565b610cfd81610cbe565b840191505092915050565b6000608083016000830151610d206000860182610c60565b5060208301518482036020860152610d388282610ccf565b9150506040830151610d4d6040860182610c60565b506060830151610d606060860182610c60565b508091505092915050565b6000610d778383610d08565b905092915050565b6000602082019050919050565b6000610d9782610c2a565b610da18185610c35565b935083602082028501610db385610c46565b8060005b85811015610def5784840389528151610dd08582610d6b565b9450610ddb83610d7f565b925060208a01995050600181019050610db7565b50829750879550505050505092915050565b60006020820190508181036000830152610e1b8184610d8c565b905092915050565b6000604051905090565b600080fd5b600080fd5b610e4081610c56565b8114610e4b57600080fd5b50565b600081359050610e5d81610e37565b92915050565b600060208284031215610e7957610e78610e2d565b5b6000610e8784828501610e4e565b91505092915050565b610e9981610c56565b82525050565b600082825260208201905092915050565b6000610ebb82610c6f565b610ec58185610e9f565b9350610ed5818560208601610c8b565b610ede81610cbe565b840191505092915050565b6000608082019050610efe6000830187610e90565b8181036020830152610f108186610eb0565b9050610f1f6040830185610e90565b610f2c6060830184610e90565b95945050505050565b600080fd5b600080fd5b7f4e487b7100000000000000000000000000000000000000000000000000000000600052604160045260246000fd5b610f7782610cbe565b810181811067ffffffffffffffff82111715610f9657610f95610f3f565b5b80604052505050565b6000610fa9610e23565b9050610fb58282610f6e565b919050565b600067ffffffffffffffff821115610fd557610fd4610f3f565b5b610fde82610cbe565b9050602081019050919050565b82818337600083830152505050565b600061100d61100884610fba565b610f9f565b90508281526020810184848401111561102957611028610f3a565b5b611034848285610feb565b509392505050565b600082601f83011261105157611050610f35565b5b8135611061848260208601610ffa565b91505092915050565b6000602082840312156110805761107f610e2d565b5b600082013567ffffffffffffffff81111561109e5761109d610e32565b5b6110aa8482850161103c565b91505092915050565b60006020820190506110c86000830184610e90565b92915050565b60006040820190506110e36000830185610e90565b6110f06020830184610e90565b9392505050565b600073ffffffffffffffffffffffffffffffffffffffff82169050919050565b6000611122826110f7565b9050919050565b61113281611117565b811461113d57600080fd5b50565b60008135905061114f81611129565b92915050565b60006020828403121561116b5761116a610e2d565b5b600061117984828501611140565b91505092915050565b60008115159050919050565b61119781611182565b82525050565b60006040820190506111b2600083018561118e565b6111bf602083018461118e565b9392505050565b6111cf81611182565b81146111da57600080fd5b50565b6000813590506111ec816111c6565b92915050565b6000806040838503121561120957611208610e2d565b5b600061121785828601610e4e565b9250506020611228858286016111dd565b9150509250929050565b61123b81611117565b82525050565b60006020820190506112566000830184611232565b92915050565b7f4e487b7100000000000000000000000000000000000000000000000000000000600052602260045260246000fd5b600060028204905060018216806112a357607f821691505b6020821081036112b6576112b561125c565b5b50919050565b7f4e487b7100000000000000000000000000000000000000000000000000000000600052601160045260246000fd5b60006112f682610c56565b915061130183610c56565b925082821015611314576113136112bc565b5b828203905092915050565b7f4e487b7100000000000000000000000000000000000000000000000000000000600052603260045260246000fd5b600061135982610c56565b91507fffffffffffffffffffffffffffffffffffffffffffffffffffffffffffffffff820361138b5761138a6112bc565b5b600182019050919050565b7f4f6e6c792061646d696e2063616e20706572666f726d2074686973206163746960008201527f6f6e000000000000000000000000000000000000000000000000000000000000602082015250565b60006113f2602283610e9f565b91506113fd82611396565b604082019050919050565b60006020820190508181036000830152611421816113e5565b9050919050565b7f566f74696e67206973206f70656e000000000000000000000000000000000000600082015250565b600061145e600e83610e9f565b915061146982611428565b602082019050919050565b6000602082019050818103600083015261148d81611451565b9050919050565b7f496e76616c69642063616e646964617465000000000000000000000000000000600082015250565b60006114ca601183610e9f565b91506114d582611494565b602082019050919050565b600060208201905081810360008301526114f9816114bd565b9050919050565b7f566f74696e67206973206e6f74206f70656e0000000000000000000000000000600082015250565b6000611536601283610e9f565b915061154182611500565b602082019050919050565b6000602082019050818103600083015261156581611529565b9050919050565b7f416c726561647920766f74656400000000000000000000000000000000000000600082015250565b60006115a2600d83610e9f565b91506115ad8261156c565b602082019050919050565b600060208201905081810360008301526115d181611595565b9050919050565b60006060820190506115ed6000830186611232565b6115fa6020830185610e90565b611607604083018461118e565b94935050505056fea2646970667358221220877edaf22e965e596b7d80bd1df8625dc715718da17712579b6b88d62b3ec65264736f6c634300080d0033",
  "immutableReferences": {},
  "source": "// SPDX-License-Identifier: MIT\npragma solidity >=0.4.22 <0.9.0;\n\ncontract YesNoVoting {\n    struct Candidate {\n        uint id;\n        string name;\n        uint yesVotes;\n        uint noVotes;\n    }\n\n    struct Voter {\n        bool hasVoted;\n        bool vote;\n    }\n\n    address public admin;\n    mapping(address => Voter) public voters;\n    mapping(uint => Candidate) public candidates;\n    uint public candidateCount;\n    // 0 - voting not started, 1 - voting started, 2 - voting ended\n    uint public votingState;\n\n    event VoteSubmitted(address voter, uint candidateId, bool vote);\n    event VotingStarted();\n    event VotingEnded();\n\n    modifier onlyAdmin() {\n        require(msg.sender == admin, \"Only admin can perform this action\");\n        _;\n    }\n\n    modifier votingIsOpen() {\n        require(votingState == 1, \"Voting is not open\");\n        _;\n    }\n\n    modifier votingIsNotOpen() {\n        require(votingState != 1, \"Voting is open\");\n        _;\n    }\n\n    constructor() {\n        admin = msg.sender;\n        candidateCount = 0;\n        votingState = 0;\n    }\n\n    function addCandidate(\n        string memory _name\n    ) public onlyAdmin votingIsNotOpen {\n        candidateCount++;\n        candidates[candidateCount] = Candidate(candidateCount, _name, 0, 0);\n    }\n\n    function getCandidates() public view returns (Candidate[] memory) {\n        Candidate[] memory _candidates = new Candidate[](candidateCount);\n        for (uint i = 1; i <= candidateCount; i++) {\n            _candidates[i - 1] = candidates[i];\n        }\n        return _candidates;\n    }\n\n    function vote(uint _candidateId, bool _vote) public votingIsOpen {\n        require(!voters[msg.sender].hasVoted, \"Already voted\");\n        require(\n            _candidateId > 0 && _candidateId <= candidateCount,\n            \"Invalid candidate\"\n        );\n\n        voters[msg.sender].hasVoted = true;\n        voters[msg.sender].vote = _vote;\n\n        if (_vote) {\n            candidates[_candidateId].yesVotes++;\n        } else {\n            candidates[_candidateId].noVotes++;\n        }\n\n        emit VoteSubmitted(msg.sender, _candidateId, _vote);\n    }\n\n    function startVoting() public onlyAdmin votingIsNotOpen {\n        votingState = 1;\n        emit VotingStarted();\n    }\n\n    function endVoting() public onlyAdmin votingIsOpen {\n        votingState = 2;\n        emit VotingEnded();\n    }\n\n    function getVotingStatus() public view returns (uint) {\n        return votingState;\n    }\n\n    function getCandidateVotes(\n        uint _candidateId\n    ) public view returns (uint yesVotes, uint noVotes) {\n        require(\n            _candidateId > 0 && _candidateId <= candidateCount,\n            \"Invalid candidate\"\n        );\n        return (\n            candidates[_candidateId].yesVotes,\n            candidates[_candidateId].noVotes\n        );\n    }\n}\n",
  "sourcePath": "/home/stanley/btda-self-tallying-election/contracts/YesNoVoting.sol",
  "compiler": {
    "name": "solc",
    "version": "0.8.13+commit.abaa5c0e.Emscripten.clang"
  },
  "schemaVersion": "3.4.16",
  "updatedAt": "2024-07-03T14:51:52.038Z",
  "networkType": "ethereum",
  "devdoc": {
    "kind": "dev",
    "methods": {},
    "version": 1
  },
  "userdoc": {
    "kind": "user",
    "methods": {},
    "version": 1
  }
}